:1000000012C0DBC02BC02AC0F3C028C027C026C046
:1000100025C0DDC023C022C0ADC020C01FC01EC08F
:100020001DC01CC01BC011241FBECFE5D4E0DEBF25
:10003000CDBF11E0A0E6B0E0E4EBF6E002C0059031
:100040000D92AC30B107D9F721E0ACE0B1E001C0CE
:100050001D92AC34B207E1F72DD12AC3D1CF939AC8
:1000600000C093980895CF93C82F662311F0AC9ADF
:1000700001C0AC98AD988C9A8D9A8E9A8F9A979869
:10008000969895989498CC230CF4979AC6FD969AD6
:10009000C5FD959AC4FD949AE2DF97989698959835
:1000A0009498C3FD979AC2FD969AC1FD959AC0FD9A
:1000B000949AD5DF949A959A969A979ACF910895A3
:1000C000882311F0AC9A01C0AC98AD9A8C988D98A9
:1000D0008E988F98939A00C0849902C080E001C0E6
:1000E00080E1859980628699806487998068939879
:1000F00000C0939A00C08499816085998260869936
:100100008460879988609398089580E0D9DF882378
:10011000E4F384E090E00197F1F780E0D1DF089507
:10012000CF93C82FF2DF60E08C2F9DDFCF91089531
:10013000CF93C82FEADFCA3041F4803410F480E452
:1001400001C080E08058ECDF0FC0803121F460E016
:1001500080EC89DF05C0803519F460E080E883DF3A
:10016000D4DF61E08C2F7FDFCF910895E1DF80E065
:1001700090E008951F920F920FB60F9211242F93C3
:100180003F934F935F936F937F938F939F93AF931F
:10019000BF93EF93FF9336D2FF91EF91BF91AF9151
:1001A0009F918F917F916F915F914F913F912F918F
:1001B0000F900FBE0F901F9018951F920F920FB6C1
:1001C0000F9211240F900FBE0F901F9018951F9241
:1001D0000F920FB60F9211248F9310920E0189B7D0
:1001E0008E7F89BF8F910F900FBE0F901F90189533
:1001F0001F920F920FB60F9211240F931F932F93FC
:100200003F934F935F936F937F938F939F93AF939E
:10021000BF93CF93DF93EF93FF9320916F003091C3
:100220006E00389A3998369A3699FECF95B187E89C
:10023000989F812D1124981B9695890F82958F7018
:10024000845C80936F003898399A369A3699FECF3D
:1002500095B187E8989F812D1124981B9695890F59
:1002600082958F7080936E0090916F00291302C069
:10027000381759F0CFE0D1E003E411E0CE01A7D167
:100280002496C017D107D1F709D2FF91EF91DF91E2
:10029000CF91BF91AF919F918F917F916F915F911E
:1002A0004F913F912F911F910F910F900FBE0F9083
:1002B0001F901895CF93DF93CDB7DEB7A2970FB6F7
:1002C000F894DEBF0FBECDBF80E690E09093490169
:1002D000809348012FEF39E688E12150304080407B
:1002E000E1F700C0000010920E0184B3817884BB56
:1002F00081B3877081BB87B3807C87BB85B38E67F2
:1003000085BB82B3886F82BB88B38F6388BB87B19C
:10031000806687B93F98379A8BB780648BBF85B763
:100320008E7F85BF85B7826085BF83B78D7F83BF92
:1003300083B7856083BF85B5876085BD80D183B372
:1003400082958F7091E0892780FBEE24E0F8F12CF4
:10035000E2E1F1E0808180FBCC24C0F8D12CEC14E8
:10036000FD0419F08FE091E045D183B38295869525
:10037000877091E0892780FBAA24A0F8B12CE6E1E0
:10038000F1E0808180FB882480F8912CA814B904C6
:1003900019F083E191E02ED180B3869586958695FC
:1003A00091E08927082F017010E0EAE1F1E08081F7
:1003B000817089A31AA229A13AA10217130719F083
:1003C00087E191E017D180B382958F7091E0892702
:1003D000817089831A82EEE1F1E0808181708B83E4
:1003E0001C8229813A818B819C812817390719F059
:1003F0008BE191E0FFD080B382958695877091E084
:10040000892781708D831E82E2E2F1E08081817014
:100410008F8318862D813E818F8198852817390713
:1004200019F08FE191E0E6D080B3829586958695AC
:10043000837091E08927817089871A86E6E2F1E06E
:10044000808181708B871C8629853A858B859C8568
:100450002817390719F083E291E0CCD080B39927AF
:1004600087FD9095809590958827990F881F9927EB
:10047000EAE2F1E0208121702D871E862D853E85E0
:100480008217930719F087E291E0B4D096B381E028
:10049000892781708F87188AEEE2F1E08081817070
:1004A000898B1A8A2F85388989899A89281739076B
:1004B00019F08BE291E09ED086B3869591E0892772
:1004C00081708B8B1C8AE2E3F1E0808181708D8BDF
:1004D0001E8A2B893C898D899E892817390719F036
:1004E0008FE291E087D086B38695869591E0892743
:1004F00081708F8B188EE6E3F1E080818170898FA7
:100500001A8E2F89388D898D9A8D2817390719F001
:1005100083E391E06FD086B386958695869591E0CA
:10052000892781708B8F1C8EEAE3F1E080818170D6
:100530008D8F1E8E2B8D3C8D8D8D9E8D28173907AE
:1005400019F087E391E056D086B382958F7091E0E1
:10055000892781708F8F18A2EEE3F1E0808180FB04
:10056000222420F8312C2F8D38A12215330519F0C3
:100570008BE391E03FD086B382958695877091E0BA
:10058000892780FB442440F8512CE2E4F1E080818B
:1005900080FB662460F8712C4614570409F4CFCE12
:1005A0008FE391E027D0CBCEFC0180818F708069F2
:1005B0008093430181818F778093440182818F777B
:1005C00080934501559A8381816083830895FC015E
:1005D00080818F7080688093430181818F778093C1
:1005E000440182818F7780934501559A83818E7F64
:1005F00083830895FC01238120FF02C0E8DF089572
:10060000D3DF089580910C0190910D01FC01ED5B09
:10061000FE4F2081222369F09C012F5F3F4F3093D2
:100620000D0120930C01FC01ED5BFE4F80818CB924
:10063000089510920D0110920C0155980895CF93D2
:10064000DF938FE090E02BD02DE730E0E1E1F1E0A7
:1006500080E090E060E5DF0112971C92D9015D9186
:100660009D01DC01AA0FBB1FAA0FBB1FED01C05FDC
:10067000DE4F545C5F7748814078452B4883608328
:10068000AE5EBE4F4C914E7F4C93019634968D30AA
:10069000910509F77894DF91CF910895089590BD61
:1006A00089B98EE880BD88E18AB9579A559A08952C
:0406B000F894FFCFEC
:1006B4000000000200000000B60000000000013C41
:1006C400000102030405060708090A0B0C000204D2
:1006D4000507090B0C0E1011131500020406070977
:1006E4000B0C0E101213150002040507090A0C0E58
:1006F400101113150002030507090A0C0E0F11133C
:10070400150002030507080A0C0E0F11131400014B
:10071400030507080A0C0D0F111314000103050645
:10072400080A0C0D0F1112140002030507080B0C24
:100734000E0F111314000203050608090B0C0E0F0B
:10074400101200030506070A0C0F111213161800E5
:0C07540002030407090C0E0F1013151807
:00000001FF
