
LH_prog.elf:     file format elf32-avr

Sections:
Idx Name          Size      VMA       LMA       File off  Algn
  0 .text         00000cb4  00000000  00000000  00000094  2**1
                  CONTENTS, ALLOC, LOAD, READONLY, CODE
  1 .data         000000c6  00800060  00000cb4  00000d48  2**0
                  CONTENTS, ALLOC, LOAD, DATA
  2 .bss          00000040  00800126  00800126  00000e0e  2**0
                  ALLOC
  3 .comment      0000005c  00000000  00000000  00000e0e  2**0
                  CONTENTS, READONLY

Disassembly of section .text:

00000000 <__vectors>:
   0:	12 c0       	rjmp	.+36     	; 0x26 <__ctors_end>
   2:	0d c1       	rjmp	.+538    	; 0x21e <__vector_1>
   4:	2b c0       	rjmp	.+86     	; 0x5c <__bad_interrupt>
   6:	2a c0       	rjmp	.+84     	; 0x5c <__bad_interrupt>
   8:	25 c1       	rjmp	.+586    	; 0x254 <__vector_4>
   a:	28 c0       	rjmp	.+80     	; 0x5c <__bad_interrupt>
   c:	27 c0       	rjmp	.+78     	; 0x5c <__bad_interrupt>
   e:	26 c0       	rjmp	.+76     	; 0x5c <__bad_interrupt>
  10:	25 c0       	rjmp	.+74     	; 0x5c <__bad_interrupt>
  12:	0f c1       	rjmp	.+542    	; 0x232 <__vector_9>
  14:	23 c0       	rjmp	.+70     	; 0x5c <__bad_interrupt>
  16:	22 c0       	rjmp	.+68     	; 0x5c <__bad_interrupt>
  18:	df c0       	rjmp	.+446    	; 0x1d8 <__vector_12>
  1a:	20 c0       	rjmp	.+64     	; 0x5c <__bad_interrupt>
  1c:	1f c0       	rjmp	.+62     	; 0x5c <__bad_interrupt>
  1e:	1e c0       	rjmp	.+60     	; 0x5c <__bad_interrupt>
  20:	1d c0       	rjmp	.+58     	; 0x5c <__bad_interrupt>
  22:	1c c0       	rjmp	.+56     	; 0x5c <__bad_interrupt>
  24:	1b c0       	rjmp	.+54     	; 0x5c <__bad_interrupt>

00000026 <__ctors_end>:
  26:	11 24       	eor	r1, r1
  28:	1f be       	out	0x3f, r1	; 63
  2a:	cf e5       	ldi	r28, 0x5F	; 95
  2c:	d4 e0       	ldi	r29, 0x04	; 4
  2e:	de bf       	out	0x3e, r29	; 62
  30:	cd bf       	out	0x3d, r28	; 61

00000032 <__do_copy_data>:
  32:	11 e0       	ldi	r17, 0x01	; 1
  34:	a0 e6       	ldi	r26, 0x60	; 96
  36:	b0 e0       	ldi	r27, 0x00	; 0
  38:	e4 eb       	ldi	r30, 0xB4	; 180
  3a:	fc e0       	ldi	r31, 0x0C	; 12
  3c:	02 c0       	rjmp	.+4      	; 0x42 <__SREG__+0x3>
  3e:	05 90       	lpm	r0, Z+
  40:	0d 92       	st	X+, r0
  42:	a6 32       	cpi	r26, 0x26	; 38
  44:	b1 07       	cpc	r27, r17
  46:	d9 f7       	brne	.-10     	; 0x3e <__SP_H__>

00000048 <__do_clear_bss>:
  48:	21 e0       	ldi	r18, 0x01	; 1
  4a:	a6 e2       	ldi	r26, 0x26	; 38
  4c:	b1 e0       	ldi	r27, 0x01	; 1
  4e:	01 c0       	rjmp	.+2      	; 0x52 <.do_clear_bss_start>

00000050 <.do_clear_bss_loop>:
  50:	1d 92       	st	X+, r1

00000052 <.do_clear_bss_start>:
  52:	a6 36       	cpi	r26, 0x66	; 102
  54:	b2 07       	cpc	r27, r18
  56:	e1 f7       	brne	.-8      	; 0x50 <.do_clear_bss_loop>
  58:	4c d1       	rcall	.+664    	; 0x2f2 <main>
  5a:	2a c6       	rjmp	.+3156   	; 0xcb0 <_exit>

0000005c <__bad_interrupt>:
  5c:	d1 cf       	rjmp	.-94     	; 0x0 <__vectors>

0000005e <toggle_e>:
  5e:	93 9a       	sbi	0x12, 3	; 18
  60:	00 c0       	rjmp	.+0      	; 0x62 <toggle_e+0x4>
  62:	93 98       	cbi	0x12, 3	; 18
  64:	08 95       	ret

00000066 <lcd_write>:
  66:	cf 93       	push	r28
  68:	df 93       	push	r29
  6a:	1f 92       	push	r1
  6c:	cd b7       	in	r28, 0x3d	; 61
  6e:	de b7       	in	r29, 0x3e	; 62
  70:	66 23       	and	r22, r22
  72:	11 f0       	breq	.+4      	; 0x78 <lcd_write+0x12>
  74:	ac 9a       	sbi	0x15, 4	; 21
  76:	01 c0       	rjmp	.+2      	; 0x7a <lcd_write+0x14>
  78:	ac 98       	cbi	0x15, 4	; 21
  7a:	ad 98       	cbi	0x15, 5	; 21
  7c:	8c 9a       	sbi	0x11, 4	; 17
  7e:	8d 9a       	sbi	0x11, 5	; 17
  80:	8e 9a       	sbi	0x11, 6	; 17
  82:	8f 9a       	sbi	0x11, 7	; 17
  84:	97 98       	cbi	0x12, 7	; 18
  86:	96 98       	cbi	0x12, 6	; 18
  88:	95 98       	cbi	0x12, 5	; 18
  8a:	94 98       	cbi	0x12, 4	; 18
  8c:	87 fd       	sbrc	r24, 7
  8e:	97 9a       	sbi	0x12, 7	; 18
  90:	86 fd       	sbrc	r24, 6
  92:	96 9a       	sbi	0x12, 6	; 18
  94:	85 fd       	sbrc	r24, 5
  96:	95 9a       	sbi	0x12, 5	; 18
  98:	84 fd       	sbrc	r24, 4
  9a:	94 9a       	sbi	0x12, 4	; 18
  9c:	89 83       	std	Y+1, r24	; 0x01
  9e:	df df       	rcall	.-66     	; 0x5e <toggle_e>
  a0:	97 98       	cbi	0x12, 7	; 18
  a2:	96 98       	cbi	0x12, 6	; 18
  a4:	95 98       	cbi	0x12, 5	; 18
  a6:	94 98       	cbi	0x12, 4	; 18
  a8:	89 81       	ldd	r24, Y+1	; 0x01
  aa:	83 fd       	sbrc	r24, 3
  ac:	97 9a       	sbi	0x12, 7	; 18
  ae:	82 fd       	sbrc	r24, 2
  b0:	96 9a       	sbi	0x12, 6	; 18
  b2:	81 fd       	sbrc	r24, 1
  b4:	95 9a       	sbi	0x12, 5	; 18
  b6:	80 fd       	sbrc	r24, 0
  b8:	94 9a       	sbi	0x12, 4	; 18
  ba:	d1 df       	rcall	.-94     	; 0x5e <toggle_e>
  bc:	94 9a       	sbi	0x12, 4	; 18
  be:	95 9a       	sbi	0x12, 5	; 18
  c0:	96 9a       	sbi	0x12, 6	; 18
  c2:	97 9a       	sbi	0x12, 7	; 18
  c4:	0f 90       	pop	r0
  c6:	df 91       	pop	r29
  c8:	cf 91       	pop	r28
  ca:	08 95       	ret

000000cc <lcd_read.constprop.0>:
  cc:	ac 98       	cbi	0x15, 4	; 21
  ce:	ad 9a       	sbi	0x15, 5	; 21
  d0:	8c 98       	cbi	0x11, 4	; 17
  d2:	8d 98       	cbi	0x11, 5	; 17
  d4:	8e 98       	cbi	0x11, 6	; 17
  d6:	8f 98       	cbi	0x11, 7	; 17
  d8:	93 9a       	sbi	0x12, 3	; 18
  da:	00 c0       	rjmp	.+0      	; 0xdc <lcd_read.constprop.0+0x10>
  dc:	84 99       	sbic	0x10, 4	; 16
  de:	02 c0       	rjmp	.+4      	; 0xe4 <lcd_read.constprop.0+0x18>
  e0:	80 e0       	ldi	r24, 0x00	; 0
  e2:	01 c0       	rjmp	.+2      	; 0xe6 <lcd_read.constprop.0+0x1a>
  e4:	80 e1       	ldi	r24, 0x10	; 16
  e6:	85 99       	sbic	0x10, 5	; 16
  e8:	80 62       	ori	r24, 0x20	; 32
  ea:	86 99       	sbic	0x10, 6	; 16
  ec:	80 64       	ori	r24, 0x40	; 64
  ee:	87 99       	sbic	0x10, 7	; 16
  f0:	80 68       	ori	r24, 0x80	; 128
  f2:	93 98       	cbi	0x12, 3	; 18
  f4:	00 c0       	rjmp	.+0      	; 0xf6 <lcd_read.constprop.0+0x2a>
  f6:	93 9a       	sbi	0x12, 3	; 18
  f8:	00 c0       	rjmp	.+0      	; 0xfa <lcd_read.constprop.0+0x2e>
  fa:	84 99       	sbic	0x10, 4	; 16
  fc:	81 60       	ori	r24, 0x01	; 1
  fe:	85 99       	sbic	0x10, 5	; 16
 100:	82 60       	ori	r24, 0x02	; 2
 102:	86 99       	sbic	0x10, 6	; 16
 104:	84 60       	ori	r24, 0x04	; 4
 106:	87 99       	sbic	0x10, 7	; 16
 108:	88 60       	ori	r24, 0x08	; 8
 10a:	93 98       	cbi	0x12, 3	; 18
 10c:	08 95       	ret

0000010e <lcd_waitbusy>:
 10e:	de df       	rcall	.-68     	; 0xcc <lcd_read.constprop.0>
 110:	87 fd       	sbrc	r24, 7
 112:	fd cf       	rjmp	.-6      	; 0x10e <lcd_waitbusy>
 114:	84 e0       	ldi	r24, 0x04	; 4
 116:	90 e0       	ldi	r25, 0x00	; 0
 118:	01 97       	sbiw	r24, 0x01	; 1
 11a:	f1 f7       	brne	.-4      	; 0x118 <lcd_waitbusy+0xa>
 11c:	d7 cf       	rjmp	.-82     	; 0xcc <lcd_read.constprop.0>

0000011e <lcd_command>:
 11e:	cf 93       	push	r28
 120:	c8 2f       	mov	r28, r24
 122:	f5 df       	rcall	.-22     	; 0x10e <lcd_waitbusy>
 124:	60 e0       	ldi	r22, 0x00	; 0
 126:	8c 2f       	mov	r24, r28
 128:	cf 91       	pop	r28
 12a:	9d cf       	rjmp	.-198    	; 0x66 <lcd_write>

0000012c <lcd_gotoxy>:
 12c:	61 11       	cpse	r22, r1
 12e:	02 c0       	rjmp	.+4      	; 0x134 <lcd_gotoxy+0x8>
 130:	80 58       	subi	r24, 0x80	; 128
 132:	01 c0       	rjmp	.+2      	; 0x136 <lcd_gotoxy+0xa>
 134:	80 54       	subi	r24, 0x40	; 64
 136:	f3 cf       	rjmp	.-26     	; 0x11e <lcd_command>

00000138 <lcd_clrscr>:
 138:	81 e0       	ldi	r24, 0x01	; 1
 13a:	f1 cf       	rjmp	.-30     	; 0x11e <lcd_command>

0000013c <lcd_putc>:
 13c:	cf 93       	push	r28
 13e:	c8 2f       	mov	r28, r24
 140:	e6 df       	rcall	.-52     	; 0x10e <lcd_waitbusy>
 142:	ca 30       	cpi	r28, 0x0A	; 10
 144:	41 f4       	brne	.+16     	; 0x156 <lcd_putc+0x1a>
 146:	80 34       	cpi	r24, 0x40	; 64
 148:	10 f4       	brcc	.+4      	; 0x14e <lcd_putc+0x12>
 14a:	80 e4       	ldi	r24, 0x40	; 64
 14c:	01 c0       	rjmp	.+2      	; 0x150 <lcd_putc+0x14>
 14e:	80 e0       	ldi	r24, 0x00	; 0
 150:	80 58       	subi	r24, 0x80	; 128
 152:	cf 91       	pop	r28
 154:	e4 cf       	rjmp	.-56     	; 0x11e <lcd_command>
 156:	80 31       	cpi	r24, 0x10	; 16
 158:	19 f4       	brne	.+6      	; 0x160 <lcd_putc+0x24>
 15a:	60 e0       	ldi	r22, 0x00	; 0
 15c:	80 ec       	ldi	r24, 0xC0	; 192
 15e:	04 c0       	rjmp	.+8      	; 0x168 <lcd_putc+0x2c>
 160:	80 35       	cpi	r24, 0x50	; 80
 162:	19 f4       	brne	.+6      	; 0x16a <lcd_putc+0x2e>
 164:	60 e0       	ldi	r22, 0x00	; 0
 166:	80 e8       	ldi	r24, 0x80	; 128
 168:	7e df       	rcall	.-260    	; 0x66 <lcd_write>
 16a:	d1 df       	rcall	.-94     	; 0x10e <lcd_waitbusy>
 16c:	61 e0       	ldi	r22, 0x01	; 1
 16e:	8c 2f       	mov	r24, r28
 170:	cf 91       	pop	r28
 172:	79 cf       	rjmp	.-270    	; 0x66 <lcd_write>

00000174 <lcd_init>:
 174:	cf 93       	push	r28
 176:	c8 2f       	mov	r28, r24
 178:	a4 9a       	sbi	0x14, 4	; 20
 17a:	a5 9a       	sbi	0x14, 5	; 20
 17c:	8b 9a       	sbi	0x11, 3	; 17
 17e:	8c 9a       	sbi	0x11, 4	; 17
 180:	8d 9a       	sbi	0x11, 5	; 17
 182:	8e 9a       	sbi	0x11, 6	; 17
 184:	8f 9a       	sbi	0x11, 7	; 17
 186:	e0 e0       	ldi	r30, 0x00	; 0
 188:	fd e7       	ldi	r31, 0x7D	; 125
 18a:	31 97       	sbiw	r30, 0x01	; 1
 18c:	f1 f7       	brne	.-4      	; 0x18a <lcd_init+0x16>
 18e:	95 9a       	sbi	0x12, 5	; 18
 190:	94 9a       	sbi	0x12, 4	; 18
 192:	65 df       	rcall	.-310    	; 0x5e <toggle_e>
 194:	e0 e0       	ldi	r30, 0x00	; 0
 196:	f7 e2       	ldi	r31, 0x27	; 39
 198:	31 97       	sbiw	r30, 0x01	; 1
 19a:	f1 f7       	brne	.-4      	; 0x198 <lcd_init+0x24>
 19c:	60 df       	rcall	.-320    	; 0x5e <toggle_e>
 19e:	e0 e8       	ldi	r30, 0x80	; 128
 1a0:	f0 e0       	ldi	r31, 0x00	; 0
 1a2:	31 97       	sbiw	r30, 0x01	; 1
 1a4:	f1 f7       	brne	.-4      	; 0x1a2 <lcd_init+0x2e>
 1a6:	5b df       	rcall	.-330    	; 0x5e <toggle_e>
 1a8:	e0 e8       	ldi	r30, 0x80	; 128
 1aa:	f0 e0       	ldi	r31, 0x00	; 0
 1ac:	31 97       	sbiw	r30, 0x01	; 1
 1ae:	f1 f7       	brne	.-4      	; 0x1ac <lcd_init+0x38>
 1b0:	94 98       	cbi	0x12, 4	; 18
 1b2:	55 df       	rcall	.-342    	; 0x5e <toggle_e>
 1b4:	e0 e8       	ldi	r30, 0x80	; 128
 1b6:	f0 e0       	ldi	r31, 0x00	; 0
 1b8:	31 97       	sbiw	r30, 0x01	; 1
 1ba:	f1 f7       	brne	.-4      	; 0x1b8 <lcd_init+0x44>
 1bc:	88 e2       	ldi	r24, 0x28	; 40
 1be:	af df       	rcall	.-162    	; 0x11e <lcd_command>
 1c0:	88 e0       	ldi	r24, 0x08	; 8
 1c2:	ad df       	rcall	.-166    	; 0x11e <lcd_command>
 1c4:	b9 df       	rcall	.-142    	; 0x138 <lcd_clrscr>
 1c6:	86 e0       	ldi	r24, 0x06	; 6
 1c8:	aa df       	rcall	.-172    	; 0x11e <lcd_command>
 1ca:	8c 2f       	mov	r24, r28
 1cc:	cf 91       	pop	r28
 1ce:	a7 cf       	rjmp	.-178    	; 0x11e <lcd_command>

000001d0 <lcd>:
 1d0:	b5 df       	rcall	.-150    	; 0x13c <lcd_putc>
 1d2:	80 e0       	ldi	r24, 0x00	; 0
 1d4:	90 e0       	ldi	r25, 0x00	; 0
 1d6:	08 95       	ret

000001d8 <__vector_12>:
 1d8:	1f 92       	push	r1
 1da:	0f 92       	push	r0
 1dc:	0f b6       	in	r0, 0x3f	; 63
 1de:	0f 92       	push	r0
 1e0:	11 24       	eor	r1, r1
 1e2:	2f 93       	push	r18
 1e4:	3f 93       	push	r19
 1e6:	4f 93       	push	r20
 1e8:	5f 93       	push	r21
 1ea:	6f 93       	push	r22
 1ec:	7f 93       	push	r23
 1ee:	8f 93       	push	r24
 1f0:	9f 93       	push	r25
 1f2:	af 93       	push	r26
 1f4:	bf 93       	push	r27
 1f6:	ef 93       	push	r30
 1f8:	ff 93       	push	r31
 1fa:	4c d2       	rcall	.+1176   	; 0x694 <send_midi>
 1fc:	ff 91       	pop	r31
 1fe:	ef 91       	pop	r30
 200:	bf 91       	pop	r27
 202:	af 91       	pop	r26
 204:	9f 91       	pop	r25
 206:	8f 91       	pop	r24
 208:	7f 91       	pop	r23
 20a:	6f 91       	pop	r22
 20c:	5f 91       	pop	r21
 20e:	4f 91       	pop	r20
 210:	3f 91       	pop	r19
 212:	2f 91       	pop	r18
 214:	0f 90       	pop	r0
 216:	0f be       	out	0x3f, r0	; 63
 218:	0f 90       	pop	r0
 21a:	1f 90       	pop	r1
 21c:	18 95       	reti

0000021e <__vector_1>:
 21e:	1f 92       	push	r1
 220:	0f 92       	push	r0
 222:	0f b6       	in	r0, 0x3f	; 63
 224:	0f 92       	push	r0
 226:	11 24       	eor	r1, r1
 228:	0f 90       	pop	r0
 22a:	0f be       	out	0x3f, r0	; 63
 22c:	0f 90       	pop	r0
 22e:	1f 90       	pop	r1
 230:	18 95       	reti

00000232 <__vector_9>:
 232:	1f 92       	push	r1
 234:	0f 92       	push	r0
 236:	0f b6       	in	r0, 0x3f	; 63
 238:	0f 92       	push	r0
 23a:	11 24       	eor	r1, r1
 23c:	8f 93       	push	r24
 23e:	10 92 28 01 	sts	0x0128, r1
 242:	89 b7       	in	r24, 0x39	; 57
 244:	8e 7f       	andi	r24, 0xFE	; 254
 246:	89 bf       	out	0x39, r24	; 57
 248:	8f 91       	pop	r24
 24a:	0f 90       	pop	r0
 24c:	0f be       	out	0x3f, r0	; 63
 24e:	0f 90       	pop	r0
 250:	1f 90       	pop	r1
 252:	18 95       	reti

00000254 <__vector_4>:
 254:	1f 92       	push	r1
 256:	0f 92       	push	r0
 258:	0f b6       	in	r0, 0x3f	; 63
 25a:	0f 92       	push	r0
 25c:	11 24       	eor	r1, r1
 25e:	2f 93       	push	r18
 260:	3f 93       	push	r19
 262:	4f 93       	push	r20
 264:	5f 93       	push	r21
 266:	6f 93       	push	r22
 268:	7f 93       	push	r23
 26a:	8f 93       	push	r24
 26c:	9f 93       	push	r25
 26e:	af 93       	push	r26
 270:	bf 93       	push	r27
 272:	cf 93       	push	r28
 274:	df 93       	push	r29
 276:	ef 93       	push	r30
 278:	ff 93       	push	r31
 27a:	30 91 6f 00 	lds	r19, 0x006F
 27e:	20 91 6e 00 	lds	r18, 0x006E
 282:	38 9a       	sbi	0x07, 0	; 7
 284:	39 98       	cbi	0x07, 1	; 7
 286:	36 9a       	sbi	0x06, 6	; 6
 288:	36 99       	sbic	0x06, 6	; 6
 28a:	fe cf       	rjmp	.-4      	; 0x288 <__vector_4+0x34>
 28c:	85 b1       	in	r24, 0x05	; 5
 28e:	65 e1       	ldi	r22, 0x15	; 21
 290:	52 d2       	rcall	.+1188   	; 0x736 <__udivmodqi4>
 292:	84 5c       	subi	r24, 0xC4	; 196
 294:	80 93 6f 00 	sts	0x006F, r24
 298:	38 98       	cbi	0x07, 0	; 7
 29a:	39 9a       	sbi	0x07, 1	; 7
 29c:	36 9a       	sbi	0x06, 6	; 6
 29e:	36 99       	sbic	0x06, 6	; 6
 2a0:	fe cf       	rjmp	.-4      	; 0x29e <__vector_4+0x4a>
 2a2:	85 b1       	in	r24, 0x05	; 5
 2a4:	65 e1       	ldi	r22, 0x15	; 21
 2a6:	47 d2       	rcall	.+1166   	; 0x736 <__udivmodqi4>
 2a8:	80 93 6e 00 	sts	0x006E, r24
 2ac:	90 91 6f 00 	lds	r25, 0x006F
 2b0:	39 13       	cpse	r19, r25
 2b2:	02 c0       	rjmp	.+4      	; 0x2b8 <__vector_4+0x64>
 2b4:	28 17       	cp	r18, r24
 2b6:	51 f0       	breq	.+20     	; 0x2cc <__vector_4+0x78>
 2b8:	c9 e2       	ldi	r28, 0x29	; 41
 2ba:	d1 e0       	ldi	r29, 0x01	; 1
 2bc:	ce 01       	movw	r24, r28
 2be:	b5 d1       	rcall	.+874    	; 0x62a <noteOff>
 2c0:	24 96       	adiw	r28, 0x04	; 4
 2c2:	81 e0       	ldi	r24, 0x01	; 1
 2c4:	cd 35       	cpi	r28, 0x5D	; 93
 2c6:	d8 07       	cpc	r29, r24
 2c8:	c9 f7       	brne	.-14     	; 0x2bc <__vector_4+0x68>
 2ca:	2b d2       	rcall	.+1110   	; 0x722 <set_keys>
 2cc:	ff 91       	pop	r31
 2ce:	ef 91       	pop	r30
 2d0:	df 91       	pop	r29
 2d2:	cf 91       	pop	r28
 2d4:	bf 91       	pop	r27
 2d6:	af 91       	pop	r26
 2d8:	9f 91       	pop	r25
 2da:	8f 91       	pop	r24
 2dc:	7f 91       	pop	r23
 2de:	6f 91       	pop	r22
 2e0:	5f 91       	pop	r21
 2e2:	4f 91       	pop	r20
 2e4:	3f 91       	pop	r19
 2e6:	2f 91       	pop	r18
 2e8:	0f 90       	pop	r0
 2ea:	0f be       	out	0x3f, r0	; 63
 2ec:	0f 90       	pop	r0
 2ee:	1f 90       	pop	r1
 2f0:	18 95       	reti

000002f2 <main>:
 2f2:	cf 93       	push	r28
 2f4:	df 93       	push	r29
 2f6:	cd b7       	in	r28, 0x3d	; 61
 2f8:	de b7       	in	r29, 0x3e	; 62
 2fa:	a0 97       	sbiw	r28, 0x20	; 32
 2fc:	0f b6       	in	r0, 0x3f	; 63
 2fe:	f8 94       	cli
 300:	de bf       	out	0x3e, r29	; 62
 302:	0f be       	out	0x3f, r0	; 63
 304:	cd bf       	out	0x3d, r28	; 61
 306:	80 e6       	ldi	r24, 0x60	; 96
 308:	90 e0       	ldi	r25, 0x00	; 0
 30a:	90 93 63 01 	sts	0x0163, r25
 30e:	80 93 62 01 	sts	0x0162, r24
 312:	2f ef       	ldi	r18, 0xFF	; 255
 314:	39 e6       	ldi	r19, 0x69	; 105
 316:	88 e1       	ldi	r24, 0x18	; 24
 318:	21 50       	subi	r18, 0x01	; 1
 31a:	30 40       	sbci	r19, 0x00	; 0
 31c:	80 40       	sbci	r24, 0x00	; 0
 31e:	e1 f7       	brne	.-8      	; 0x318 <main+0x26>
 320:	00 c0       	rjmp	.+0      	; 0x322 <main+0x30>
 322:	00 00       	nop
 324:	10 92 28 01 	sts	0x0128, r1
 328:	84 b3       	in	r24, 0x14	; 20
 32a:	81 78       	andi	r24, 0x81	; 129
 32c:	84 bb       	out	0x14, r24	; 20
 32e:	81 b3       	in	r24, 0x11	; 17
 330:	87 70       	andi	r24, 0x07	; 7
 332:	81 bb       	out	0x11, r24	; 17
 334:	87 b3       	in	r24, 0x17	; 23
 336:	80 7c       	andi	r24, 0xC0	; 192
 338:	87 bb       	out	0x17, r24	; 23
 33a:	85 b3       	in	r24, 0x15	; 21
 33c:	8e 67       	ori	r24, 0x7E	; 126
 33e:	85 bb       	out	0x15, r24	; 21
 340:	82 b3       	in	r24, 0x12	; 18
 342:	88 6f       	ori	r24, 0xF8	; 248
 344:	82 bb       	out	0x12, r24	; 18
 346:	88 b3       	in	r24, 0x18	; 24
 348:	8f 63       	ori	r24, 0x3F	; 63
 34a:	88 bb       	out	0x18, r24	; 24
 34c:	87 b1       	in	r24, 0x07	; 7
 34e:	80 66       	ori	r24, 0x60	; 96
 350:	87 b9       	out	0x07, r24	; 7
 352:	3f 98       	cbi	0x07, 7	; 7
 354:	37 9a       	sbi	0x06, 7	; 6
 356:	8b b7       	in	r24, 0x3b	; 59
 358:	80 64       	ori	r24, 0x40	; 64
 35a:	8b bf       	out	0x3b, r24	; 59
 35c:	85 b7       	in	r24, 0x35	; 53
 35e:	8e 7f       	andi	r24, 0xFE	; 254
 360:	85 bf       	out	0x35, r24	; 53
 362:	85 b7       	in	r24, 0x35	; 53
 364:	82 60       	ori	r24, 0x02	; 2
 366:	85 bf       	out	0x35, r24	; 53
 368:	83 b7       	in	r24, 0x33	; 51
 36a:	8d 7f       	andi	r24, 0xFD	; 253
 36c:	83 bf       	out	0x33, r24	; 51
 36e:	83 b7       	in	r24, 0x33	; 51
 370:	85 60       	ori	r24, 0x05	; 5
 372:	83 bf       	out	0x33, r24	; 51
 374:	85 b5       	in	r24, 0x25	; 37
 376:	87 60       	ori	r24, 0x07	; 7
 378:	85 bd       	out	0x25, r24	; 37
 37a:	a4 d1       	rcall	.+840    	; 0x6c4 <init>
 37c:	8f e0       	ldi	r24, 0x0F	; 15
 37e:	fa de       	rcall	.-524    	; 0x174 <lcd_init>
 380:	83 b3       	in	r24, 0x13	; 19
 382:	82 95       	swap	r24
 384:	8f 70       	andi	r24, 0x0F	; 15
 386:	91 e0       	ldi	r25, 0x01	; 1
 388:	89 27       	eor	r24, r25
 38a:	81 70       	andi	r24, 0x01	; 1
 38c:	89 83       	std	Y+1, r24	; 0x01
 38e:	1a 82       	std	Y+2, r1	; 0x02
 390:	80 91 2c 01 	lds	r24, 0x012C
 394:	81 70       	andi	r24, 0x01	; 1
 396:	8b 83       	std	Y+3, r24	; 0x03
 398:	1c 82       	std	Y+4, r1	; 0x04
 39a:	29 81       	ldd	r18, Y+1	; 0x01
 39c:	3a 81       	ldd	r19, Y+2	; 0x02
 39e:	8b 81       	ldd	r24, Y+3	; 0x03
 3a0:	9c 81       	ldd	r25, Y+4	; 0x04
 3a2:	28 17       	cp	r18, r24
 3a4:	39 07       	cpc	r19, r25
 3a6:	19 f0       	breq	.+6      	; 0x3ae <main+0xbc>
 3a8:	89 e2       	ldi	r24, 0x29	; 41
 3aa:	91 e0       	ldi	r25, 0x01	; 1
 3ac:	6e d1       	rcall	.+732    	; 0x68a <noteAction>
 3ae:	83 b3       	in	r24, 0x13	; 19
 3b0:	82 95       	swap	r24
 3b2:	86 95       	lsr	r24
 3b4:	87 70       	andi	r24, 0x07	; 7
 3b6:	91 e0       	ldi	r25, 0x01	; 1
 3b8:	89 27       	eor	r24, r25
 3ba:	81 70       	andi	r24, 0x01	; 1
 3bc:	8d 83       	std	Y+5, r24	; 0x05
 3be:	1e 82       	std	Y+6, r1	; 0x06
 3c0:	80 91 30 01 	lds	r24, 0x0130
 3c4:	81 70       	andi	r24, 0x01	; 1
 3c6:	8f 83       	std	Y+7, r24	; 0x07
 3c8:	18 86       	std	Y+8, r1	; 0x08
 3ca:	2d 81       	ldd	r18, Y+5	; 0x05
 3cc:	3e 81       	ldd	r19, Y+6	; 0x06
 3ce:	8f 81       	ldd	r24, Y+7	; 0x07
 3d0:	98 85       	ldd	r25, Y+8	; 0x08
 3d2:	28 17       	cp	r18, r24
 3d4:	39 07       	cpc	r19, r25
 3d6:	19 f0       	breq	.+6      	; 0x3de <main+0xec>
 3d8:	8d e2       	ldi	r24, 0x2D	; 45
 3da:	91 e0       	ldi	r25, 0x01	; 1
 3dc:	56 d1       	rcall	.+684    	; 0x68a <noteAction>
 3de:	80 b3       	in	r24, 0x10	; 16
 3e0:	86 95       	lsr	r24
 3e2:	86 95       	lsr	r24
 3e4:	86 95       	lsr	r24
 3e6:	91 e0       	ldi	r25, 0x01	; 1
 3e8:	89 27       	eor	r24, r25
 3ea:	81 70       	andi	r24, 0x01	; 1
 3ec:	89 87       	std	Y+9, r24	; 0x09
 3ee:	1a 86       	std	Y+10, r1	; 0x0a
 3f0:	80 91 34 01 	lds	r24, 0x0134
 3f4:	81 70       	andi	r24, 0x01	; 1
 3f6:	8b 87       	std	Y+11, r24	; 0x0b
 3f8:	1c 86       	std	Y+12, r1	; 0x0c
 3fa:	29 85       	ldd	r18, Y+9	; 0x09
 3fc:	3a 85       	ldd	r19, Y+10	; 0x0a
 3fe:	8b 85       	ldd	r24, Y+11	; 0x0b
 400:	9c 85       	ldd	r25, Y+12	; 0x0c
 402:	28 17       	cp	r18, r24
 404:	39 07       	cpc	r19, r25
 406:	19 f0       	breq	.+6      	; 0x40e <main+0x11c>
 408:	81 e3       	ldi	r24, 0x31	; 49
 40a:	91 e0       	ldi	r25, 0x01	; 1
 40c:	3e d1       	rcall	.+636    	; 0x68a <noteAction>
 40e:	80 b3       	in	r24, 0x10	; 16
 410:	82 95       	swap	r24
 412:	8f 70       	andi	r24, 0x0F	; 15
 414:	91 e0       	ldi	r25, 0x01	; 1
 416:	89 27       	eor	r24, r25
 418:	81 70       	andi	r24, 0x01	; 1
 41a:	8d 87       	std	Y+13, r24	; 0x0d
 41c:	1e 86       	std	Y+14, r1	; 0x0e
 41e:	80 91 38 01 	lds	r24, 0x0138
 422:	81 70       	andi	r24, 0x01	; 1
 424:	8f 87       	std	Y+15, r24	; 0x0f
 426:	18 8a       	std	Y+16, r1	; 0x10
 428:	2d 85       	ldd	r18, Y+13	; 0x0d
 42a:	3e 85       	ldd	r19, Y+14	; 0x0e
 42c:	8f 85       	ldd	r24, Y+15	; 0x0f
 42e:	98 89       	ldd	r25, Y+16	; 0x10
 430:	28 17       	cp	r18, r24
 432:	39 07       	cpc	r19, r25
 434:	19 f0       	breq	.+6      	; 0x43c <main+0x14a>
 436:	85 e3       	ldi	r24, 0x35	; 53
 438:	91 e0       	ldi	r25, 0x01	; 1
 43a:	27 d1       	rcall	.+590    	; 0x68a <noteAction>
 43c:	80 b3       	in	r24, 0x10	; 16
 43e:	82 95       	swap	r24
 440:	86 95       	lsr	r24
 442:	87 70       	andi	r24, 0x07	; 7
 444:	91 e0       	ldi	r25, 0x01	; 1
 446:	89 27       	eor	r24, r25
 448:	81 70       	andi	r24, 0x01	; 1
 44a:	89 8b       	std	Y+17, r24	; 0x11
 44c:	1a 8a       	std	Y+18, r1	; 0x12
 44e:	80 91 3c 01 	lds	r24, 0x013C
 452:	81 70       	andi	r24, 0x01	; 1
 454:	8b 8b       	std	Y+19, r24	; 0x13
 456:	1c 8a       	std	Y+20, r1	; 0x14
 458:	29 89       	ldd	r18, Y+17	; 0x11
 45a:	3a 89       	ldd	r19, Y+18	; 0x12
 45c:	8b 89       	ldd	r24, Y+19	; 0x13
 45e:	9c 89       	ldd	r25, Y+20	; 0x14
 460:	28 17       	cp	r18, r24
 462:	39 07       	cpc	r19, r25
 464:	19 f0       	breq	.+6      	; 0x46c <__stack+0xd>
 466:	89 e3       	ldi	r24, 0x39	; 57
 468:	91 e0       	ldi	r25, 0x01	; 1
 46a:	0f d1       	rcall	.+542    	; 0x68a <noteAction>
 46c:	80 b3       	in	r24, 0x10	; 16
 46e:	82 95       	swap	r24
 470:	86 95       	lsr	r24
 472:	86 95       	lsr	r24
 474:	83 70       	andi	r24, 0x03	; 3
 476:	91 e0       	ldi	r25, 0x01	; 1
 478:	89 27       	eor	r24, r25
 47a:	81 70       	andi	r24, 0x01	; 1
 47c:	8d 8b       	std	Y+21, r24	; 0x15
 47e:	1e 8a       	std	Y+22, r1	; 0x16
 480:	80 91 40 01 	lds	r24, 0x0140
 484:	81 70       	andi	r24, 0x01	; 1
 486:	8f 8b       	std	Y+23, r24	; 0x17
 488:	18 8e       	std	Y+24, r1	; 0x18
 48a:	2d 89       	ldd	r18, Y+21	; 0x15
 48c:	3e 89       	ldd	r19, Y+22	; 0x16
 48e:	8f 89       	ldd	r24, Y+23	; 0x17
 490:	98 8d       	ldd	r25, Y+24	; 0x18
 492:	28 17       	cp	r18, r24
 494:	39 07       	cpc	r19, r25
 496:	19 f0       	breq	.+6      	; 0x49e <__stack+0x3f>
 498:	8d e3       	ldi	r24, 0x3D	; 61
 49a:	91 e0       	ldi	r25, 0x01	; 1
 49c:	f6 d0       	rcall	.+492    	; 0x68a <noteAction>
 49e:	80 b3       	in	r24, 0x10	; 16
 4a0:	99 27       	eor	r25, r25
 4a2:	87 fd       	sbrc	r24, 7
 4a4:	90 95       	com	r25
 4a6:	80 95       	com	r24
 4a8:	90 95       	com	r25
 4aa:	88 27       	eor	r24, r24
 4ac:	99 0f       	add	r25, r25
 4ae:	88 1f       	adc	r24, r24
 4b0:	99 27       	eor	r25, r25
 4b2:	20 91 44 01 	lds	r18, 0x0144
 4b6:	21 70       	andi	r18, 0x01	; 1
 4b8:	29 8f       	std	Y+25, r18	; 0x19
 4ba:	1a 8e       	std	Y+26, r1	; 0x1a
 4bc:	29 8d       	ldd	r18, Y+25	; 0x19
 4be:	3a 8d       	ldd	r19, Y+26	; 0x1a
 4c0:	82 17       	cp	r24, r18
 4c2:	93 07       	cpc	r25, r19
 4c4:	19 f0       	breq	.+6      	; 0x4cc <__stack+0x6d>
 4c6:	81 e4       	ldi	r24, 0x41	; 65
 4c8:	91 e0       	ldi	r25, 0x01	; 1
 4ca:	df d0       	rcall	.+446    	; 0x68a <noteAction>
 4cc:	86 b3       	in	r24, 0x16	; 22
 4ce:	81 70       	andi	r24, 0x01	; 1
 4d0:	31 e0       	ldi	r19, 0x01	; 1
 4d2:	83 27       	eor	r24, r19
 4d4:	90 e0       	ldi	r25, 0x00	; 0
 4d6:	20 91 48 01 	lds	r18, 0x0148
 4da:	21 70       	andi	r18, 0x01	; 1
 4dc:	2b 8f       	std	Y+27, r18	; 0x1b
 4de:	1c 8e       	std	Y+28, r1	; 0x1c
 4e0:	2b 8d       	ldd	r18, Y+27	; 0x1b
 4e2:	3c 8d       	ldd	r19, Y+28	; 0x1c
 4e4:	82 17       	cp	r24, r18
 4e6:	93 07       	cpc	r25, r19
 4e8:	19 f0       	breq	.+6      	; 0x4f0 <__stack+0x91>
 4ea:	85 e4       	ldi	r24, 0x45	; 69
 4ec:	91 e0       	ldi	r25, 0x01	; 1
 4ee:	cd d0       	rcall	.+410    	; 0x68a <noteAction>
 4f0:	86 b3       	in	r24, 0x16	; 22
 4f2:	86 95       	lsr	r24
 4f4:	31 e0       	ldi	r19, 0x01	; 1
 4f6:	83 27       	eor	r24, r19
 4f8:	81 70       	andi	r24, 0x01	; 1
 4fa:	8d 8f       	std	Y+29, r24	; 0x1d
 4fc:	1e 8e       	std	Y+30, r1	; 0x1e
 4fe:	80 91 4c 01 	lds	r24, 0x014C
 502:	80 fb       	bst	r24, 0
 504:	22 24       	eor	r2, r2
 506:	20 f8       	bld	r2, 0
 508:	31 2c       	mov	r3, r1
 50a:	2d 8d       	ldd	r18, Y+29	; 0x1d
 50c:	3e 8d       	ldd	r19, Y+30	; 0x1e
 50e:	22 15       	cp	r18, r2
 510:	33 05       	cpc	r19, r3
 512:	19 f0       	breq	.+6      	; 0x51a <__stack+0xbb>
 514:	89 e4       	ldi	r24, 0x49	; 73
 516:	91 e0       	ldi	r25, 0x01	; 1
 518:	b8 d0       	rcall	.+368    	; 0x68a <noteAction>
 51a:	86 b3       	in	r24, 0x16	; 22
 51c:	86 95       	lsr	r24
 51e:	86 95       	lsr	r24
 520:	31 e0       	ldi	r19, 0x01	; 1
 522:	83 27       	eor	r24, r19
 524:	80 fb       	bst	r24, 0
 526:	44 24       	eor	r4, r4
 528:	40 f8       	bld	r4, 0
 52a:	51 2c       	mov	r5, r1
 52c:	80 91 50 01 	lds	r24, 0x0150
 530:	80 fb       	bst	r24, 0
 532:	66 24       	eor	r6, r6
 534:	60 f8       	bld	r6, 0
 536:	71 2c       	mov	r7, r1
 538:	46 14       	cp	r4, r6
 53a:	57 04       	cpc	r5, r7
 53c:	19 f0       	breq	.+6      	; 0x544 <__stack+0xe5>
 53e:	8d e4       	ldi	r24, 0x4D	; 77
 540:	91 e0       	ldi	r25, 0x01	; 1
 542:	a3 d0       	rcall	.+326    	; 0x68a <noteAction>
 544:	86 b3       	in	r24, 0x16	; 22
 546:	86 95       	lsr	r24
 548:	86 95       	lsr	r24
 54a:	86 95       	lsr	r24
 54c:	91 e0       	ldi	r25, 0x01	; 1
 54e:	89 27       	eor	r24, r25
 550:	81 70       	andi	r24, 0x01	; 1
 552:	8f 8f       	std	Y+31, r24	; 0x1f
 554:	18 a2       	std	Y+32, r1	; 0x20
 556:	80 91 54 01 	lds	r24, 0x0154
 55a:	08 2f       	mov	r16, r24
 55c:	01 70       	andi	r16, 0x01	; 1
 55e:	10 e0       	ldi	r17, 0x00	; 0
 560:	2f 8d       	ldd	r18, Y+31	; 0x1f
 562:	38 a1       	ldd	r19, Y+32	; 0x20
 564:	20 17       	cp	r18, r16
 566:	31 07       	cpc	r19, r17
 568:	19 f0       	breq	.+6      	; 0x570 <__stack+0x111>
 56a:	81 e5       	ldi	r24, 0x51	; 81
 56c:	91 e0       	ldi	r25, 0x01	; 1
 56e:	8d d0       	rcall	.+282    	; 0x68a <noteAction>
 570:	86 b3       	in	r24, 0x16	; 22
 572:	82 95       	swap	r24
 574:	8f 70       	andi	r24, 0x0F	; 15
 576:	31 e0       	ldi	r19, 0x01	; 1
 578:	83 27       	eor	r24, r19
 57a:	80 fb       	bst	r24, 0
 57c:	ee 24       	eor	r14, r14
 57e:	e0 f8       	bld	r14, 0
 580:	f1 2c       	mov	r15, r1
 582:	80 91 58 01 	lds	r24, 0x0158
 586:	80 fb       	bst	r24, 0
 588:	cc 24       	eor	r12, r12
 58a:	c0 f8       	bld	r12, 0
 58c:	d1 2c       	mov	r13, r1
 58e:	ec 14       	cp	r14, r12
 590:	fd 04       	cpc	r15, r13
 592:	19 f0       	breq	.+6      	; 0x59a <__stack+0x13b>
 594:	85 e5       	ldi	r24, 0x55	; 85
 596:	91 e0       	ldi	r25, 0x01	; 1
 598:	78 d0       	rcall	.+240    	; 0x68a <noteAction>
 59a:	86 b3       	in	r24, 0x16	; 22
 59c:	82 95       	swap	r24
 59e:	86 95       	lsr	r24
 5a0:	87 70       	andi	r24, 0x07	; 7
 5a2:	91 e0       	ldi	r25, 0x01	; 1
 5a4:	89 27       	eor	r24, r25
 5a6:	80 fb       	bst	r24, 0
 5a8:	aa 24       	eor	r10, r10
 5aa:	a0 f8       	bld	r10, 0
 5ac:	b1 2c       	mov	r11, r1
 5ae:	80 91 5c 01 	lds	r24, 0x015C
 5b2:	80 fb       	bst	r24, 0
 5b4:	88 24       	eor	r8, r8
 5b6:	80 f8       	bld	r8, 0
 5b8:	91 2c       	mov	r9, r1
 5ba:	a8 14       	cp	r10, r8
 5bc:	b9 04       	cpc	r11, r9
 5be:	09 f4       	brne	.+2      	; 0x5c2 <__stack+0x163>
 5c0:	df ce       	rjmp	.-578    	; 0x380 <main+0x8e>
 5c2:	89 e5       	ldi	r24, 0x59	; 89
 5c4:	91 e0       	ldi	r25, 0x01	; 1
 5c6:	61 d0       	rcall	.+194    	; 0x68a <noteAction>
 5c8:	db ce       	rjmp	.-586    	; 0x380 <main+0x8e>

000005ca <noteOn>:
 5ca:	cf 93       	push	r28
 5cc:	df 93       	push	r29
 5ce:	ec 01       	movw	r28, r24
 5d0:	88 81       	ld	r24, Y
 5d2:	8f 70       	andi	r24, 0x0F	; 15
 5d4:	80 69       	ori	r24, 0x90	; 144
 5d6:	80 93 5d 01 	sts	0x015D, r24
 5da:	89 81       	ldd	r24, Y+1	; 0x01
 5dc:	8f 77       	andi	r24, 0x7F	; 127
 5de:	80 93 5e 01 	sts	0x015E, r24
 5e2:	8a 81       	ldd	r24, Y+2	; 0x02
 5e4:	8f 77       	andi	r24, 0x7F	; 127
 5e6:	80 93 5f 01 	sts	0x015F, r24
 5ea:	55 9a       	sbi	0x0a, 5	; 10
 5ec:	8b 81       	ldd	r24, Y+3	; 0x03
 5ee:	81 60       	ori	r24, 0x01	; 1
 5f0:	8b 83       	std	Y+3, r24	; 0x03
 5f2:	61 e0       	ldi	r22, 0x01	; 1
 5f4:	80 e0       	ldi	r24, 0x00	; 0
 5f6:	9a dd       	rcall	.-1228   	; 0x12c <lcd_gotoxy>
 5f8:	89 81       	ldd	r24, Y+1	; 0x01
 5fa:	8f 77       	andi	r24, 0x7F	; 127
 5fc:	1f 92       	push	r1
 5fe:	8f 93       	push	r24
 600:	8c e0       	ldi	r24, 0x0C	; 12
 602:	91 e0       	ldi	r25, 0x01	; 1
 604:	9f 93       	push	r25
 606:	8f 93       	push	r24
 608:	a2 d0       	rcall	.+324    	; 0x74e <printf>
 60a:	2f ef       	ldi	r18, 0xFF	; 255
 60c:	81 ee       	ldi	r24, 0xE1	; 225
 60e:	94 e0       	ldi	r25, 0x04	; 4
 610:	21 50       	subi	r18, 0x01	; 1
 612:	80 40       	sbci	r24, 0x00	; 0
 614:	90 40       	sbci	r25, 0x00	; 0
 616:	e1 f7       	brne	.-8      	; 0x610 <noteOn+0x46>
 618:	00 c0       	rjmp	.+0      	; 0x61a <noteOn+0x50>
 61a:	00 00       	nop
 61c:	0f 90       	pop	r0
 61e:	0f 90       	pop	r0
 620:	0f 90       	pop	r0
 622:	0f 90       	pop	r0
 624:	df 91       	pop	r29
 626:	cf 91       	pop	r28
 628:	87 cd       	rjmp	.-1266   	; 0x138 <lcd_clrscr>

0000062a <noteOff>:
 62a:	cf 93       	push	r28
 62c:	df 93       	push	r29
 62e:	ec 01       	movw	r28, r24
 630:	88 81       	ld	r24, Y
 632:	8f 70       	andi	r24, 0x0F	; 15
 634:	80 68       	ori	r24, 0x80	; 128
 636:	80 93 5d 01 	sts	0x015D, r24
 63a:	89 81       	ldd	r24, Y+1	; 0x01
 63c:	8f 77       	andi	r24, 0x7F	; 127
 63e:	80 93 5e 01 	sts	0x015E, r24
 642:	8a 81       	ldd	r24, Y+2	; 0x02
 644:	8f 77       	andi	r24, 0x7F	; 127
 646:	80 93 5f 01 	sts	0x015F, r24
 64a:	55 9a       	sbi	0x0a, 5	; 10
 64c:	8b 81       	ldd	r24, Y+3	; 0x03
 64e:	8e 7f       	andi	r24, 0xFE	; 254
 650:	8b 83       	std	Y+3, r24	; 0x03
 652:	60 e0       	ldi	r22, 0x00	; 0
 654:	80 e0       	ldi	r24, 0x00	; 0
 656:	6a dd       	rcall	.-1324   	; 0x12c <lcd_gotoxy>
 658:	89 81       	ldd	r24, Y+1	; 0x01
 65a:	8f 77       	andi	r24, 0x7F	; 127
 65c:	1f 92       	push	r1
 65e:	8f 93       	push	r24
 660:	88 e1       	ldi	r24, 0x18	; 24
 662:	91 e0       	ldi	r25, 0x01	; 1
 664:	9f 93       	push	r25
 666:	8f 93       	push	r24
 668:	72 d0       	rcall	.+228    	; 0x74e <printf>
 66a:	2f ef       	ldi	r18, 0xFF	; 255
 66c:	81 ee       	ldi	r24, 0xE1	; 225
 66e:	94 e0       	ldi	r25, 0x04	; 4
 670:	21 50       	subi	r18, 0x01	; 1
 672:	80 40       	sbci	r24, 0x00	; 0
 674:	90 40       	sbci	r25, 0x00	; 0
 676:	e1 f7       	brne	.-8      	; 0x670 <noteOff+0x46>
 678:	00 c0       	rjmp	.+0      	; 0x67a <noteOff+0x50>
 67a:	00 00       	nop
 67c:	0f 90       	pop	r0
 67e:	0f 90       	pop	r0
 680:	0f 90       	pop	r0
 682:	0f 90       	pop	r0
 684:	df 91       	pop	r29
 686:	cf 91       	pop	r28
 688:	57 cd       	rjmp	.-1362   	; 0x138 <lcd_clrscr>

0000068a <noteAction>:
 68a:	fc 01       	movw	r30, r24
 68c:	23 81       	ldd	r18, Z+3	; 0x03
 68e:	20 fd       	sbrc	r18, 0
 690:	cc cf       	rjmp	.-104    	; 0x62a <noteOff>
 692:	9b cf       	rjmp	.-202    	; 0x5ca <noteOn>

00000694 <send_midi>:
 694:	80 91 26 01 	lds	r24, 0x0126
 698:	90 91 27 01 	lds	r25, 0x0127
 69c:	fc 01       	movw	r30, r24
 69e:	e3 5a       	subi	r30, 0xA3	; 163
 6a0:	fe 4f       	sbci	r31, 0xFE	; 254
 6a2:	20 81       	ld	r18, Z
 6a4:	22 23       	and	r18, r18
 6a6:	41 f0       	breq	.+16     	; 0x6b8 <send_midi+0x24>
 6a8:	01 96       	adiw	r24, 0x01	; 1
 6aa:	90 93 27 01 	sts	0x0127, r25
 6ae:	80 93 26 01 	sts	0x0126, r24
 6b2:	80 81       	ld	r24, Z
 6b4:	8c b9       	out	0x0c, r24	; 12
 6b6:	08 95       	ret
 6b8:	10 92 27 01 	sts	0x0127, r1
 6bc:	10 92 26 01 	sts	0x0126, r1
 6c0:	55 98       	cbi	0x0a, 5	; 10
 6c2:	08 95       	ret

000006c4 <init>:
 6c4:	cf 93       	push	r28
 6c6:	df 93       	push	r29
 6c8:	8f e0       	ldi	r24, 0x0F	; 15
 6ca:	90 e0       	ldi	r25, 0x00	; 0
 6cc:	2b d0       	rcall	.+86     	; 0x724 <usart_init>
 6ce:	2d e7       	ldi	r18, 0x7D	; 125
 6d0:	30 e0       	ldi	r19, 0x00	; 0
 6d2:	eb e2       	ldi	r30, 0x2B	; 43
 6d4:	f1 e0       	ldi	r31, 0x01	; 1
 6d6:	80 e0       	ldi	r24, 0x00	; 0
 6d8:	90 e0       	ldi	r25, 0x00	; 0
 6da:	60 e5       	ldi	r22, 0x50	; 80
 6dc:	df 01       	movw	r26, r30
 6de:	12 97       	sbiw	r26, 0x02	; 2
 6e0:	1c 92       	st	X, r1
 6e2:	d9 01       	movw	r26, r18
 6e4:	5d 91       	ld	r21, X+
 6e6:	9d 01       	movw	r18, r26
 6e8:	dc 01       	movw	r26, r24
 6ea:	aa 0f       	add	r26, r26
 6ec:	bb 1f       	adc	r27, r27
 6ee:	aa 0f       	add	r26, r26
 6f0:	bb 1f       	adc	r27, r27
 6f2:	ed 01       	movw	r28, r26
 6f4:	c6 5d       	subi	r28, 0xD6	; 214
 6f6:	de 4f       	sbci	r29, 0xFE	; 254
 6f8:	54 5c       	subi	r21, 0xC4	; 196
 6fa:	5f 77       	andi	r21, 0x7F	; 127
 6fc:	48 81       	ld	r20, Y
 6fe:	40 78       	andi	r20, 0x80	; 128
 700:	45 2b       	or	r20, r21
 702:	48 83       	st	Y, r20
 704:	60 83       	st	Z, r22
 706:	a4 5d       	subi	r26, 0xD4	; 212
 708:	be 4f       	sbci	r27, 0xFE	; 254
 70a:	4c 91       	ld	r20, X
 70c:	4e 7f       	andi	r20, 0xFE	; 254
 70e:	4c 93       	st	X, r20
 710:	01 96       	adiw	r24, 0x01	; 1
 712:	34 96       	adiw	r30, 0x04	; 4
 714:	8d 30       	cpi	r24, 0x0D	; 13
 716:	91 05       	cpc	r25, r1
 718:	09 f7       	brne	.-62     	; 0x6dc <init+0x18>
 71a:	78 94       	sei
 71c:	df 91       	pop	r29
 71e:	cf 91       	pop	r28
 720:	08 95       	ret

00000722 <set_keys>:
 722:	08 95       	ret

00000724 <usart_init>:
 724:	90 bd       	out	0x20, r25	; 32
 726:	89 b9       	out	0x09, r24	; 9
 728:	8e e8       	ldi	r24, 0x8E	; 142
 72a:	80 bd       	out	0x20, r24	; 32
 72c:	88 e1       	ldi	r24, 0x18	; 24
 72e:	8a b9       	out	0x0a, r24	; 10
 730:	57 9a       	sbi	0x0a, 7	; 10
 732:	55 9a       	sbi	0x0a, 5	; 10
 734:	08 95       	ret

00000736 <__udivmodqi4>:
 736:	99 1b       	sub	r25, r25
 738:	79 e0       	ldi	r23, 0x09	; 9
 73a:	04 c0       	rjmp	.+8      	; 0x744 <__udivmodqi4_ep>

0000073c <__udivmodqi4_loop>:
 73c:	99 1f       	adc	r25, r25
 73e:	96 17       	cp	r25, r22
 740:	08 f0       	brcs	.+2      	; 0x744 <__udivmodqi4_ep>
 742:	96 1b       	sub	r25, r22

00000744 <__udivmodqi4_ep>:
 744:	88 1f       	adc	r24, r24
 746:	7a 95       	dec	r23
 748:	c9 f7       	brne	.-14     	; 0x73c <__udivmodqi4_loop>
 74a:	80 95       	com	r24
 74c:	08 95       	ret

0000074e <printf>:
 74e:	a0 e0       	ldi	r26, 0x00	; 0
 750:	b0 e0       	ldi	r27, 0x00	; 0
 752:	ec ea       	ldi	r30, 0xAC	; 172
 754:	f3 e0       	ldi	r31, 0x03	; 3
 756:	85 c2       	rjmp	.+1290   	; 0xc62 <__prologue_saves__+0x20>
 758:	fe 01       	movw	r30, r28
 75a:	35 96       	adiw	r30, 0x05	; 5
 75c:	61 91       	ld	r22, Z+
 75e:	71 91       	ld	r23, Z+
 760:	af 01       	movw	r20, r30
 762:	80 91 62 01 	lds	r24, 0x0162
 766:	90 91 63 01 	lds	r25, 0x0163
 76a:	02 d0       	rcall	.+4      	; 0x770 <vfprintf>
 76c:	e2 e0       	ldi	r30, 0x02	; 2
 76e:	95 c2       	rjmp	.+1322   	; 0xc9a <__epilogue_restores__+0x20>

00000770 <vfprintf>:
 770:	ac e0       	ldi	r26, 0x0C	; 12
 772:	b0 e0       	ldi	r27, 0x00	; 0
 774:	ed eb       	ldi	r30, 0xBD	; 189
 776:	f3 e0       	ldi	r31, 0x03	; 3
 778:	64 c2       	rjmp	.+1224   	; 0xc42 <__prologue_saves__>
 77a:	7c 01       	movw	r14, r24
 77c:	6b 01       	movw	r12, r22
 77e:	8a 01       	movw	r16, r20
 780:	fc 01       	movw	r30, r24
 782:	17 82       	std	Z+7, r1	; 0x07
 784:	16 82       	std	Z+6, r1	; 0x06
 786:	83 81       	ldd	r24, Z+3	; 0x03
 788:	81 ff       	sbrs	r24, 1
 78a:	b0 c1       	rjmp	.+864    	; 0xaec <vfprintf+0x37c>
 78c:	ce 01       	movw	r24, r28
 78e:	01 96       	adiw	r24, 0x01	; 1
 790:	4c 01       	movw	r8, r24
 792:	f7 01       	movw	r30, r14
 794:	93 81       	ldd	r25, Z+3	; 0x03
 796:	f6 01       	movw	r30, r12
 798:	93 fd       	sbrc	r25, 3
 79a:	85 91       	lpm	r24, Z+
 79c:	93 ff       	sbrs	r25, 3
 79e:	81 91       	ld	r24, Z+
 7a0:	6f 01       	movw	r12, r30
 7a2:	88 23       	and	r24, r24
 7a4:	09 f4       	brne	.+2      	; 0x7a8 <vfprintf+0x38>
 7a6:	9e c1       	rjmp	.+828    	; 0xae4 <vfprintf+0x374>
 7a8:	85 32       	cpi	r24, 0x25	; 37
 7aa:	39 f4       	brne	.+14     	; 0x7ba <vfprintf+0x4a>
 7ac:	93 fd       	sbrc	r25, 3
 7ae:	85 91       	lpm	r24, Z+
 7b0:	93 ff       	sbrs	r25, 3
 7b2:	81 91       	ld	r24, Z+
 7b4:	6f 01       	movw	r12, r30
 7b6:	85 32       	cpi	r24, 0x25	; 37
 7b8:	21 f4       	brne	.+8      	; 0x7c2 <vfprintf+0x52>
 7ba:	b7 01       	movw	r22, r14
 7bc:	90 e0       	ldi	r25, 0x00	; 0
 7be:	b1 d1       	rcall	.+866    	; 0xb22 <fputc>
 7c0:	e8 cf       	rjmp	.-48     	; 0x792 <vfprintf+0x22>
 7c2:	51 2c       	mov	r5, r1
 7c4:	31 2c       	mov	r3, r1
 7c6:	20 e0       	ldi	r18, 0x00	; 0
 7c8:	20 32       	cpi	r18, 0x20	; 32
 7ca:	a0 f4       	brcc	.+40     	; 0x7f4 <vfprintf+0x84>
 7cc:	8b 32       	cpi	r24, 0x2B	; 43
 7ce:	69 f0       	breq	.+26     	; 0x7ea <vfprintf+0x7a>
 7d0:	30 f4       	brcc	.+12     	; 0x7de <vfprintf+0x6e>
 7d2:	80 32       	cpi	r24, 0x20	; 32
 7d4:	59 f0       	breq	.+22     	; 0x7ec <vfprintf+0x7c>
 7d6:	83 32       	cpi	r24, 0x23	; 35
 7d8:	69 f4       	brne	.+26     	; 0x7f4 <vfprintf+0x84>
 7da:	20 61       	ori	r18, 0x10	; 16
 7dc:	2c c0       	rjmp	.+88     	; 0x836 <vfprintf+0xc6>
 7de:	8d 32       	cpi	r24, 0x2D	; 45
 7e0:	39 f0       	breq	.+14     	; 0x7f0 <vfprintf+0x80>
 7e2:	80 33       	cpi	r24, 0x30	; 48
 7e4:	39 f4       	brne	.+14     	; 0x7f4 <vfprintf+0x84>
 7e6:	21 60       	ori	r18, 0x01	; 1
 7e8:	26 c0       	rjmp	.+76     	; 0x836 <vfprintf+0xc6>
 7ea:	22 60       	ori	r18, 0x02	; 2
 7ec:	24 60       	ori	r18, 0x04	; 4
 7ee:	23 c0       	rjmp	.+70     	; 0x836 <vfprintf+0xc6>
 7f0:	28 60       	ori	r18, 0x08	; 8
 7f2:	21 c0       	rjmp	.+66     	; 0x836 <vfprintf+0xc6>
 7f4:	27 fd       	sbrc	r18, 7
 7f6:	27 c0       	rjmp	.+78     	; 0x846 <vfprintf+0xd6>
 7f8:	30 ed       	ldi	r19, 0xD0	; 208
 7fa:	38 0f       	add	r19, r24
 7fc:	3a 30       	cpi	r19, 0x0A	; 10
 7fe:	78 f4       	brcc	.+30     	; 0x81e <vfprintf+0xae>
 800:	26 ff       	sbrs	r18, 6
 802:	06 c0       	rjmp	.+12     	; 0x810 <vfprintf+0xa0>
 804:	fa e0       	ldi	r31, 0x0A	; 10
 806:	5f 9e       	mul	r5, r31
 808:	30 0d       	add	r19, r0
 80a:	11 24       	eor	r1, r1
 80c:	53 2e       	mov	r5, r19
 80e:	13 c0       	rjmp	.+38     	; 0x836 <vfprintf+0xc6>
 810:	8a e0       	ldi	r24, 0x0A	; 10
 812:	38 9e       	mul	r3, r24
 814:	30 0d       	add	r19, r0
 816:	11 24       	eor	r1, r1
 818:	33 2e       	mov	r3, r19
 81a:	20 62       	ori	r18, 0x20	; 32
 81c:	0c c0       	rjmp	.+24     	; 0x836 <vfprintf+0xc6>
 81e:	8e 32       	cpi	r24, 0x2E	; 46
 820:	21 f4       	brne	.+8      	; 0x82a <vfprintf+0xba>
 822:	26 fd       	sbrc	r18, 6
 824:	5f c1       	rjmp	.+702    	; 0xae4 <vfprintf+0x374>
 826:	20 64       	ori	r18, 0x40	; 64
 828:	06 c0       	rjmp	.+12     	; 0x836 <vfprintf+0xc6>
 82a:	8c 36       	cpi	r24, 0x6C	; 108
 82c:	11 f4       	brne	.+4      	; 0x832 <vfprintf+0xc2>
 82e:	20 68       	ori	r18, 0x80	; 128
 830:	02 c0       	rjmp	.+4      	; 0x836 <vfprintf+0xc6>
 832:	88 36       	cpi	r24, 0x68	; 104
 834:	41 f4       	brne	.+16     	; 0x846 <vfprintf+0xd6>
 836:	f6 01       	movw	r30, r12
 838:	93 fd       	sbrc	r25, 3
 83a:	85 91       	lpm	r24, Z+
 83c:	93 ff       	sbrs	r25, 3
 83e:	81 91       	ld	r24, Z+
 840:	6f 01       	movw	r12, r30
 842:	81 11       	cpse	r24, r1
 844:	c1 cf       	rjmp	.-126    	; 0x7c8 <vfprintf+0x58>
 846:	98 2f       	mov	r25, r24
 848:	9f 7d       	andi	r25, 0xDF	; 223
 84a:	95 54       	subi	r25, 0x45	; 69
 84c:	93 30       	cpi	r25, 0x03	; 3
 84e:	28 f4       	brcc	.+10     	; 0x85a <vfprintf+0xea>
 850:	0c 5f       	subi	r16, 0xFC	; 252
 852:	1f 4f       	sbci	r17, 0xFF	; 255
 854:	ff e3       	ldi	r31, 0x3F	; 63
 856:	f9 83       	std	Y+1, r31	; 0x01
 858:	0d c0       	rjmp	.+26     	; 0x874 <vfprintf+0x104>
 85a:	83 36       	cpi	r24, 0x63	; 99
 85c:	31 f0       	breq	.+12     	; 0x86a <vfprintf+0xfa>
 85e:	83 37       	cpi	r24, 0x73	; 115
 860:	71 f0       	breq	.+28     	; 0x87e <vfprintf+0x10e>
 862:	83 35       	cpi	r24, 0x53	; 83
 864:	09 f0       	breq	.+2      	; 0x868 <vfprintf+0xf8>
 866:	57 c0       	rjmp	.+174    	; 0x916 <vfprintf+0x1a6>
 868:	21 c0       	rjmp	.+66     	; 0x8ac <vfprintf+0x13c>
 86a:	f8 01       	movw	r30, r16
 86c:	80 81       	ld	r24, Z
 86e:	89 83       	std	Y+1, r24	; 0x01
 870:	0e 5f       	subi	r16, 0xFE	; 254
 872:	1f 4f       	sbci	r17, 0xFF	; 255
 874:	44 24       	eor	r4, r4
 876:	43 94       	inc	r4
 878:	51 2c       	mov	r5, r1
 87a:	54 01       	movw	r10, r8
 87c:	14 c0       	rjmp	.+40     	; 0x8a6 <vfprintf+0x136>
 87e:	38 01       	movw	r6, r16
 880:	f2 e0       	ldi	r31, 0x02	; 2
 882:	6f 0e       	add	r6, r31
 884:	71 1c       	adc	r7, r1
 886:	f8 01       	movw	r30, r16
 888:	a0 80       	ld	r10, Z
 88a:	b1 80       	ldd	r11, Z+1	; 0x01
 88c:	26 ff       	sbrs	r18, 6
 88e:	03 c0       	rjmp	.+6      	; 0x896 <vfprintf+0x126>
 890:	65 2d       	mov	r22, r5
 892:	70 e0       	ldi	r23, 0x00	; 0
 894:	02 c0       	rjmp	.+4      	; 0x89a <vfprintf+0x12a>
 896:	6f ef       	ldi	r22, 0xFF	; 255
 898:	7f ef       	ldi	r23, 0xFF	; 255
 89a:	c5 01       	movw	r24, r10
 89c:	2c 87       	std	Y+12, r18	; 0x0c
 89e:	36 d1       	rcall	.+620    	; 0xb0c <strnlen>
 8a0:	2c 01       	movw	r4, r24
 8a2:	83 01       	movw	r16, r6
 8a4:	2c 85       	ldd	r18, Y+12	; 0x0c
 8a6:	2f 77       	andi	r18, 0x7F	; 127
 8a8:	22 2e       	mov	r2, r18
 8aa:	16 c0       	rjmp	.+44     	; 0x8d8 <vfprintf+0x168>
 8ac:	38 01       	movw	r6, r16
 8ae:	f2 e0       	ldi	r31, 0x02	; 2
 8b0:	6f 0e       	add	r6, r31
 8b2:	71 1c       	adc	r7, r1
 8b4:	f8 01       	movw	r30, r16
 8b6:	a0 80       	ld	r10, Z
 8b8:	b1 80       	ldd	r11, Z+1	; 0x01
 8ba:	26 ff       	sbrs	r18, 6
 8bc:	03 c0       	rjmp	.+6      	; 0x8c4 <vfprintf+0x154>
 8be:	65 2d       	mov	r22, r5
 8c0:	70 e0       	ldi	r23, 0x00	; 0
 8c2:	02 c0       	rjmp	.+4      	; 0x8c8 <vfprintf+0x158>
 8c4:	6f ef       	ldi	r22, 0xFF	; 255
 8c6:	7f ef       	ldi	r23, 0xFF	; 255
 8c8:	c5 01       	movw	r24, r10
 8ca:	2c 87       	std	Y+12, r18	; 0x0c
 8cc:	14 d1       	rcall	.+552    	; 0xaf6 <strnlen_P>
 8ce:	2c 01       	movw	r4, r24
 8d0:	2c 85       	ldd	r18, Y+12	; 0x0c
 8d2:	20 68       	ori	r18, 0x80	; 128
 8d4:	22 2e       	mov	r2, r18
 8d6:	83 01       	movw	r16, r6
 8d8:	23 fc       	sbrc	r2, 3
 8da:	19 c0       	rjmp	.+50     	; 0x90e <vfprintf+0x19e>
 8dc:	83 2d       	mov	r24, r3
 8de:	90 e0       	ldi	r25, 0x00	; 0
 8e0:	48 16       	cp	r4, r24
 8e2:	59 06       	cpc	r5, r25
 8e4:	a0 f4       	brcc	.+40     	; 0x90e <vfprintf+0x19e>
 8e6:	b7 01       	movw	r22, r14
 8e8:	80 e2       	ldi	r24, 0x20	; 32
 8ea:	90 e0       	ldi	r25, 0x00	; 0
 8ec:	1a d1       	rcall	.+564    	; 0xb22 <fputc>
 8ee:	3a 94       	dec	r3
 8f0:	f5 cf       	rjmp	.-22     	; 0x8dc <vfprintf+0x16c>
 8f2:	f5 01       	movw	r30, r10
 8f4:	27 fc       	sbrc	r2, 7
 8f6:	85 91       	lpm	r24, Z+
 8f8:	27 fe       	sbrs	r2, 7
 8fa:	81 91       	ld	r24, Z+
 8fc:	5f 01       	movw	r10, r30
 8fe:	b7 01       	movw	r22, r14
 900:	90 e0       	ldi	r25, 0x00	; 0
 902:	0f d1       	rcall	.+542    	; 0xb22 <fputc>
 904:	31 10       	cpse	r3, r1
 906:	3a 94       	dec	r3
 908:	f1 e0       	ldi	r31, 0x01	; 1
 90a:	4f 1a       	sub	r4, r31
 90c:	51 08       	sbc	r5, r1
 90e:	41 14       	cp	r4, r1
 910:	51 04       	cpc	r5, r1
 912:	79 f7       	brne	.-34     	; 0x8f2 <vfprintf+0x182>
 914:	de c0       	rjmp	.+444    	; 0xad2 <vfprintf+0x362>
 916:	84 36       	cpi	r24, 0x64	; 100
 918:	11 f0       	breq	.+4      	; 0x91e <vfprintf+0x1ae>
 91a:	89 36       	cpi	r24, 0x69	; 105
 91c:	31 f5       	brne	.+76     	; 0x96a <vfprintf+0x1fa>
 91e:	f8 01       	movw	r30, r16
 920:	27 ff       	sbrs	r18, 7
 922:	07 c0       	rjmp	.+14     	; 0x932 <vfprintf+0x1c2>
 924:	60 81       	ld	r22, Z
 926:	71 81       	ldd	r23, Z+1	; 0x01
 928:	82 81       	ldd	r24, Z+2	; 0x02
 92a:	93 81       	ldd	r25, Z+3	; 0x03
 92c:	0c 5f       	subi	r16, 0xFC	; 252
 92e:	1f 4f       	sbci	r17, 0xFF	; 255
 930:	08 c0       	rjmp	.+16     	; 0x942 <vfprintf+0x1d2>
 932:	60 81       	ld	r22, Z
 934:	71 81       	ldd	r23, Z+1	; 0x01
 936:	88 27       	eor	r24, r24
 938:	77 fd       	sbrc	r23, 7
 93a:	80 95       	com	r24
 93c:	98 2f       	mov	r25, r24
 93e:	0e 5f       	subi	r16, 0xFE	; 254
 940:	1f 4f       	sbci	r17, 0xFF	; 255
 942:	2f 76       	andi	r18, 0x6F	; 111
 944:	b2 2e       	mov	r11, r18
 946:	97 ff       	sbrs	r25, 7
 948:	09 c0       	rjmp	.+18     	; 0x95c <vfprintf+0x1ec>
 94a:	90 95       	com	r25
 94c:	80 95       	com	r24
 94e:	70 95       	com	r23
 950:	61 95       	neg	r22
 952:	7f 4f       	sbci	r23, 0xFF	; 255
 954:	8f 4f       	sbci	r24, 0xFF	; 255
 956:	9f 4f       	sbci	r25, 0xFF	; 255
 958:	20 68       	ori	r18, 0x80	; 128
 95a:	b2 2e       	mov	r11, r18
 95c:	2a e0       	ldi	r18, 0x0A	; 10
 95e:	30 e0       	ldi	r19, 0x00	; 0
 960:	a4 01       	movw	r20, r8
 962:	11 d1       	rcall	.+546    	; 0xb86 <__ultoa_invert>
 964:	a8 2e       	mov	r10, r24
 966:	a8 18       	sub	r10, r8
 968:	43 c0       	rjmp	.+134    	; 0x9f0 <vfprintf+0x280>
 96a:	85 37       	cpi	r24, 0x75	; 117
 96c:	29 f4       	brne	.+10     	; 0x978 <vfprintf+0x208>
 96e:	2f 7e       	andi	r18, 0xEF	; 239
 970:	b2 2e       	mov	r11, r18
 972:	2a e0       	ldi	r18, 0x0A	; 10
 974:	30 e0       	ldi	r19, 0x00	; 0
 976:	25 c0       	rjmp	.+74     	; 0x9c2 <vfprintf+0x252>
 978:	f2 2f       	mov	r31, r18
 97a:	f9 7f       	andi	r31, 0xF9	; 249
 97c:	bf 2e       	mov	r11, r31
 97e:	8f 36       	cpi	r24, 0x6F	; 111
 980:	c1 f0       	breq	.+48     	; 0x9b2 <vfprintf+0x242>
 982:	18 f4       	brcc	.+6      	; 0x98a <vfprintf+0x21a>
 984:	88 35       	cpi	r24, 0x58	; 88
 986:	79 f0       	breq	.+30     	; 0x9a6 <vfprintf+0x236>
 988:	ad c0       	rjmp	.+346    	; 0xae4 <vfprintf+0x374>
 98a:	80 37       	cpi	r24, 0x70	; 112
 98c:	19 f0       	breq	.+6      	; 0x994 <vfprintf+0x224>
 98e:	88 37       	cpi	r24, 0x78	; 120
 990:	21 f0       	breq	.+8      	; 0x99a <vfprintf+0x22a>
 992:	a8 c0       	rjmp	.+336    	; 0xae4 <vfprintf+0x374>
 994:	2f 2f       	mov	r18, r31
 996:	20 61       	ori	r18, 0x10	; 16
 998:	b2 2e       	mov	r11, r18
 99a:	b4 fe       	sbrs	r11, 4
 99c:	0d c0       	rjmp	.+26     	; 0x9b8 <vfprintf+0x248>
 99e:	8b 2d       	mov	r24, r11
 9a0:	84 60       	ori	r24, 0x04	; 4
 9a2:	b8 2e       	mov	r11, r24
 9a4:	09 c0       	rjmp	.+18     	; 0x9b8 <vfprintf+0x248>
 9a6:	24 ff       	sbrs	r18, 4
 9a8:	0a c0       	rjmp	.+20     	; 0x9be <vfprintf+0x24e>
 9aa:	9f 2f       	mov	r25, r31
 9ac:	96 60       	ori	r25, 0x06	; 6
 9ae:	b9 2e       	mov	r11, r25
 9b0:	06 c0       	rjmp	.+12     	; 0x9be <vfprintf+0x24e>
 9b2:	28 e0       	ldi	r18, 0x08	; 8
 9b4:	30 e0       	ldi	r19, 0x00	; 0
 9b6:	05 c0       	rjmp	.+10     	; 0x9c2 <vfprintf+0x252>
 9b8:	20 e1       	ldi	r18, 0x10	; 16
 9ba:	30 e0       	ldi	r19, 0x00	; 0
 9bc:	02 c0       	rjmp	.+4      	; 0x9c2 <vfprintf+0x252>
 9be:	20 e1       	ldi	r18, 0x10	; 16
 9c0:	32 e0       	ldi	r19, 0x02	; 2
 9c2:	f8 01       	movw	r30, r16
 9c4:	b7 fe       	sbrs	r11, 7
 9c6:	07 c0       	rjmp	.+14     	; 0x9d6 <vfprintf+0x266>
 9c8:	60 81       	ld	r22, Z
 9ca:	71 81       	ldd	r23, Z+1	; 0x01
 9cc:	82 81       	ldd	r24, Z+2	; 0x02
 9ce:	93 81       	ldd	r25, Z+3	; 0x03
 9d0:	0c 5f       	subi	r16, 0xFC	; 252
 9d2:	1f 4f       	sbci	r17, 0xFF	; 255
 9d4:	06 c0       	rjmp	.+12     	; 0x9e2 <vfprintf+0x272>
 9d6:	60 81       	ld	r22, Z
 9d8:	71 81       	ldd	r23, Z+1	; 0x01
 9da:	80 e0       	ldi	r24, 0x00	; 0
 9dc:	90 e0       	ldi	r25, 0x00	; 0
 9de:	0e 5f       	subi	r16, 0xFE	; 254
 9e0:	1f 4f       	sbci	r17, 0xFF	; 255
 9e2:	a4 01       	movw	r20, r8
 9e4:	d0 d0       	rcall	.+416    	; 0xb86 <__ultoa_invert>
 9e6:	a8 2e       	mov	r10, r24
 9e8:	a8 18       	sub	r10, r8
 9ea:	fb 2d       	mov	r31, r11
 9ec:	ff 77       	andi	r31, 0x7F	; 127
 9ee:	bf 2e       	mov	r11, r31
 9f0:	b6 fe       	sbrs	r11, 6
 9f2:	0b c0       	rjmp	.+22     	; 0xa0a <vfprintf+0x29a>
 9f4:	2b 2d       	mov	r18, r11
 9f6:	2e 7f       	andi	r18, 0xFE	; 254
 9f8:	a5 14       	cp	r10, r5
 9fa:	50 f4       	brcc	.+20     	; 0xa10 <vfprintf+0x2a0>
 9fc:	b4 fe       	sbrs	r11, 4
 9fe:	0a c0       	rjmp	.+20     	; 0xa14 <vfprintf+0x2a4>
 a00:	b2 fc       	sbrc	r11, 2
 a02:	08 c0       	rjmp	.+16     	; 0xa14 <vfprintf+0x2a4>
 a04:	2b 2d       	mov	r18, r11
 a06:	2e 7e       	andi	r18, 0xEE	; 238
 a08:	05 c0       	rjmp	.+10     	; 0xa14 <vfprintf+0x2a4>
 a0a:	7a 2c       	mov	r7, r10
 a0c:	2b 2d       	mov	r18, r11
 a0e:	03 c0       	rjmp	.+6      	; 0xa16 <vfprintf+0x2a6>
 a10:	7a 2c       	mov	r7, r10
 a12:	01 c0       	rjmp	.+2      	; 0xa16 <vfprintf+0x2a6>
 a14:	75 2c       	mov	r7, r5
 a16:	24 ff       	sbrs	r18, 4
 a18:	0d c0       	rjmp	.+26     	; 0xa34 <vfprintf+0x2c4>
 a1a:	fe 01       	movw	r30, r28
 a1c:	ea 0d       	add	r30, r10
 a1e:	f1 1d       	adc	r31, r1
 a20:	80 81       	ld	r24, Z
 a22:	80 33       	cpi	r24, 0x30	; 48
 a24:	11 f4       	brne	.+4      	; 0xa2a <vfprintf+0x2ba>
 a26:	29 7e       	andi	r18, 0xE9	; 233
 a28:	09 c0       	rjmp	.+18     	; 0xa3c <vfprintf+0x2cc>
 a2a:	22 ff       	sbrs	r18, 2
 a2c:	06 c0       	rjmp	.+12     	; 0xa3a <vfprintf+0x2ca>
 a2e:	73 94       	inc	r7
 a30:	73 94       	inc	r7
 a32:	04 c0       	rjmp	.+8      	; 0xa3c <vfprintf+0x2cc>
 a34:	82 2f       	mov	r24, r18
 a36:	86 78       	andi	r24, 0x86	; 134
 a38:	09 f0       	breq	.+2      	; 0xa3c <vfprintf+0x2cc>
 a3a:	73 94       	inc	r7
 a3c:	23 fd       	sbrc	r18, 3
 a3e:	12 c0       	rjmp	.+36     	; 0xa64 <vfprintf+0x2f4>
 a40:	20 ff       	sbrs	r18, 0
 a42:	06 c0       	rjmp	.+12     	; 0xa50 <vfprintf+0x2e0>
 a44:	5a 2c       	mov	r5, r10
 a46:	73 14       	cp	r7, r3
 a48:	18 f4       	brcc	.+6      	; 0xa50 <vfprintf+0x2e0>
 a4a:	53 0c       	add	r5, r3
 a4c:	57 18       	sub	r5, r7
 a4e:	73 2c       	mov	r7, r3
 a50:	73 14       	cp	r7, r3
 a52:	60 f4       	brcc	.+24     	; 0xa6c <vfprintf+0x2fc>
 a54:	b7 01       	movw	r22, r14
 a56:	80 e2       	ldi	r24, 0x20	; 32
 a58:	90 e0       	ldi	r25, 0x00	; 0
 a5a:	2c 87       	std	Y+12, r18	; 0x0c
 a5c:	62 d0       	rcall	.+196    	; 0xb22 <fputc>
 a5e:	73 94       	inc	r7
 a60:	2c 85       	ldd	r18, Y+12	; 0x0c
 a62:	f6 cf       	rjmp	.-20     	; 0xa50 <vfprintf+0x2e0>
 a64:	73 14       	cp	r7, r3
 a66:	10 f4       	brcc	.+4      	; 0xa6c <vfprintf+0x2fc>
 a68:	37 18       	sub	r3, r7
 a6a:	01 c0       	rjmp	.+2      	; 0xa6e <vfprintf+0x2fe>
 a6c:	31 2c       	mov	r3, r1
 a6e:	24 ff       	sbrs	r18, 4
 a70:	11 c0       	rjmp	.+34     	; 0xa94 <vfprintf+0x324>
 a72:	b7 01       	movw	r22, r14
 a74:	80 e3       	ldi	r24, 0x30	; 48
 a76:	90 e0       	ldi	r25, 0x00	; 0
 a78:	2c 87       	std	Y+12, r18	; 0x0c
 a7a:	53 d0       	rcall	.+166    	; 0xb22 <fputc>
 a7c:	2c 85       	ldd	r18, Y+12	; 0x0c
 a7e:	22 ff       	sbrs	r18, 2
 a80:	16 c0       	rjmp	.+44     	; 0xaae <vfprintf+0x33e>
 a82:	21 ff       	sbrs	r18, 1
 a84:	03 c0       	rjmp	.+6      	; 0xa8c <vfprintf+0x31c>
 a86:	88 e5       	ldi	r24, 0x58	; 88
 a88:	90 e0       	ldi	r25, 0x00	; 0
 a8a:	02 c0       	rjmp	.+4      	; 0xa90 <vfprintf+0x320>
 a8c:	88 e7       	ldi	r24, 0x78	; 120
 a8e:	90 e0       	ldi	r25, 0x00	; 0
 a90:	b7 01       	movw	r22, r14
 a92:	0c c0       	rjmp	.+24     	; 0xaac <vfprintf+0x33c>
 a94:	82 2f       	mov	r24, r18
 a96:	86 78       	andi	r24, 0x86	; 134
 a98:	51 f0       	breq	.+20     	; 0xaae <vfprintf+0x33e>
 a9a:	21 fd       	sbrc	r18, 1
 a9c:	02 c0       	rjmp	.+4      	; 0xaa2 <vfprintf+0x332>
 a9e:	80 e2       	ldi	r24, 0x20	; 32
 aa0:	01 c0       	rjmp	.+2      	; 0xaa4 <vfprintf+0x334>
 aa2:	8b e2       	ldi	r24, 0x2B	; 43
 aa4:	27 fd       	sbrc	r18, 7
 aa6:	8d e2       	ldi	r24, 0x2D	; 45
 aa8:	b7 01       	movw	r22, r14
 aaa:	90 e0       	ldi	r25, 0x00	; 0
 aac:	3a d0       	rcall	.+116    	; 0xb22 <fputc>
 aae:	a5 14       	cp	r10, r5
 ab0:	30 f4       	brcc	.+12     	; 0xabe <vfprintf+0x34e>
 ab2:	b7 01       	movw	r22, r14
 ab4:	80 e3       	ldi	r24, 0x30	; 48
 ab6:	90 e0       	ldi	r25, 0x00	; 0
 ab8:	34 d0       	rcall	.+104    	; 0xb22 <fputc>
 aba:	5a 94       	dec	r5
 abc:	f8 cf       	rjmp	.-16     	; 0xaae <vfprintf+0x33e>
 abe:	aa 94       	dec	r10
 ac0:	f4 01       	movw	r30, r8
 ac2:	ea 0d       	add	r30, r10
 ac4:	f1 1d       	adc	r31, r1
 ac6:	80 81       	ld	r24, Z
 ac8:	b7 01       	movw	r22, r14
 aca:	90 e0       	ldi	r25, 0x00	; 0
 acc:	2a d0       	rcall	.+84     	; 0xb22 <fputc>
 ace:	a1 10       	cpse	r10, r1
 ad0:	f6 cf       	rjmp	.-20     	; 0xabe <vfprintf+0x34e>
 ad2:	33 20       	and	r3, r3
 ad4:	09 f4       	brne	.+2      	; 0xad8 <vfprintf+0x368>
 ad6:	5d ce       	rjmp	.-838    	; 0x792 <vfprintf+0x22>
 ad8:	b7 01       	movw	r22, r14
 ada:	80 e2       	ldi	r24, 0x20	; 32
 adc:	90 e0       	ldi	r25, 0x00	; 0
 ade:	21 d0       	rcall	.+66     	; 0xb22 <fputc>
 ae0:	3a 94       	dec	r3
 ae2:	f7 cf       	rjmp	.-18     	; 0xad2 <vfprintf+0x362>
 ae4:	f7 01       	movw	r30, r14
 ae6:	86 81       	ldd	r24, Z+6	; 0x06
 ae8:	97 81       	ldd	r25, Z+7	; 0x07
 aea:	02 c0       	rjmp	.+4      	; 0xaf0 <vfprintf+0x380>
 aec:	8f ef       	ldi	r24, 0xFF	; 255
 aee:	9f ef       	ldi	r25, 0xFF	; 255
 af0:	2c 96       	adiw	r28, 0x0c	; 12
 af2:	e2 e1       	ldi	r30, 0x12	; 18
 af4:	c2 c0       	rjmp	.+388    	; 0xc7a <__epilogue_restores__>

00000af6 <strnlen_P>:
 af6:	fc 01       	movw	r30, r24
 af8:	05 90       	lpm	r0, Z+
 afa:	61 50       	subi	r22, 0x01	; 1
 afc:	70 40       	sbci	r23, 0x00	; 0
 afe:	01 10       	cpse	r0, r1
 b00:	d8 f7       	brcc	.-10     	; 0xaf8 <strnlen_P+0x2>
 b02:	80 95       	com	r24
 b04:	90 95       	com	r25
 b06:	8e 0f       	add	r24, r30
 b08:	9f 1f       	adc	r25, r31
 b0a:	08 95       	ret

00000b0c <strnlen>:
 b0c:	fc 01       	movw	r30, r24
 b0e:	61 50       	subi	r22, 0x01	; 1
 b10:	70 40       	sbci	r23, 0x00	; 0
 b12:	01 90       	ld	r0, Z+
 b14:	01 10       	cpse	r0, r1
 b16:	d8 f7       	brcc	.-10     	; 0xb0e <strnlen+0x2>
 b18:	80 95       	com	r24
 b1a:	90 95       	com	r25
 b1c:	8e 0f       	add	r24, r30
 b1e:	9f 1f       	adc	r25, r31
 b20:	08 95       	ret

00000b22 <fputc>:
 b22:	0f 93       	push	r16
 b24:	1f 93       	push	r17
 b26:	cf 93       	push	r28
 b28:	df 93       	push	r29
 b2a:	18 2f       	mov	r17, r24
 b2c:	09 2f       	mov	r16, r25
 b2e:	eb 01       	movw	r28, r22
 b30:	8b 81       	ldd	r24, Y+3	; 0x03
 b32:	81 fd       	sbrc	r24, 1
 b34:	03 c0       	rjmp	.+6      	; 0xb3c <fputc+0x1a>
 b36:	8f ef       	ldi	r24, 0xFF	; 255
 b38:	9f ef       	ldi	r25, 0xFF	; 255
 b3a:	20 c0       	rjmp	.+64     	; 0xb7c <fputc+0x5a>
 b3c:	82 ff       	sbrs	r24, 2
 b3e:	10 c0       	rjmp	.+32     	; 0xb60 <fputc+0x3e>
 b40:	4e 81       	ldd	r20, Y+6	; 0x06
 b42:	5f 81       	ldd	r21, Y+7	; 0x07
 b44:	2c 81       	ldd	r18, Y+4	; 0x04
 b46:	3d 81       	ldd	r19, Y+5	; 0x05
 b48:	42 17       	cp	r20, r18
 b4a:	53 07       	cpc	r21, r19
 b4c:	7c f4       	brge	.+30     	; 0xb6c <fputc+0x4a>
 b4e:	e8 81       	ld	r30, Y
 b50:	f9 81       	ldd	r31, Y+1	; 0x01
 b52:	9f 01       	movw	r18, r30
 b54:	2f 5f       	subi	r18, 0xFF	; 255
 b56:	3f 4f       	sbci	r19, 0xFF	; 255
 b58:	39 83       	std	Y+1, r19	; 0x01
 b5a:	28 83       	st	Y, r18
 b5c:	10 83       	st	Z, r17
 b5e:	06 c0       	rjmp	.+12     	; 0xb6c <fputc+0x4a>
 b60:	e8 85       	ldd	r30, Y+8	; 0x08
 b62:	f9 85       	ldd	r31, Y+9	; 0x09
 b64:	81 2f       	mov	r24, r17
 b66:	09 95       	icall
 b68:	89 2b       	or	r24, r25
 b6a:	29 f7       	brne	.-54     	; 0xb36 <fputc+0x14>
 b6c:	2e 81       	ldd	r18, Y+6	; 0x06
 b6e:	3f 81       	ldd	r19, Y+7	; 0x07
 b70:	2f 5f       	subi	r18, 0xFF	; 255
 b72:	3f 4f       	sbci	r19, 0xFF	; 255
 b74:	3f 83       	std	Y+7, r19	; 0x07
 b76:	2e 83       	std	Y+6, r18	; 0x06
 b78:	81 2f       	mov	r24, r17
 b7a:	90 2f       	mov	r25, r16
 b7c:	df 91       	pop	r29
 b7e:	cf 91       	pop	r28
 b80:	1f 91       	pop	r17
 b82:	0f 91       	pop	r16
 b84:	08 95       	ret

00000b86 <__ultoa_invert>:
 b86:	fa 01       	movw	r30, r20
 b88:	aa 27       	eor	r26, r26
 b8a:	28 30       	cpi	r18, 0x08	; 8
 b8c:	51 f1       	breq	.+84     	; 0xbe2 <__ultoa_invert+0x5c>
 b8e:	20 31       	cpi	r18, 0x10	; 16
 b90:	81 f1       	breq	.+96     	; 0xbf2 <__ultoa_invert+0x6c>
 b92:	e8 94       	clt
 b94:	6f 93       	push	r22
 b96:	6e 7f       	andi	r22, 0xFE	; 254
 b98:	6e 5f       	subi	r22, 0xFE	; 254
 b9a:	7f 4f       	sbci	r23, 0xFF	; 255
 b9c:	8f 4f       	sbci	r24, 0xFF	; 255
 b9e:	9f 4f       	sbci	r25, 0xFF	; 255
 ba0:	af 4f       	sbci	r26, 0xFF	; 255
 ba2:	b1 e0       	ldi	r27, 0x01	; 1
 ba4:	3e d0       	rcall	.+124    	; 0xc22 <__ultoa_invert+0x9c>
 ba6:	b4 e0       	ldi	r27, 0x04	; 4
 ba8:	3c d0       	rcall	.+120    	; 0xc22 <__ultoa_invert+0x9c>
 baa:	67 0f       	add	r22, r23
 bac:	78 1f       	adc	r23, r24
 bae:	89 1f       	adc	r24, r25
 bb0:	9a 1f       	adc	r25, r26
 bb2:	a1 1d       	adc	r26, r1
 bb4:	68 0f       	add	r22, r24
 bb6:	79 1f       	adc	r23, r25
 bb8:	8a 1f       	adc	r24, r26
 bba:	91 1d       	adc	r25, r1
 bbc:	a1 1d       	adc	r26, r1
 bbe:	6a 0f       	add	r22, r26
 bc0:	71 1d       	adc	r23, r1
 bc2:	81 1d       	adc	r24, r1
 bc4:	91 1d       	adc	r25, r1
 bc6:	a1 1d       	adc	r26, r1
 bc8:	20 d0       	rcall	.+64     	; 0xc0a <__ultoa_invert+0x84>
 bca:	09 f4       	brne	.+2      	; 0xbce <__ultoa_invert+0x48>
 bcc:	68 94       	set
 bce:	3f 91       	pop	r19
 bd0:	2a e0       	ldi	r18, 0x0A	; 10
 bd2:	26 9f       	mul	r18, r22
 bd4:	11 24       	eor	r1, r1
 bd6:	30 19       	sub	r19, r0
 bd8:	30 5d       	subi	r19, 0xD0	; 208
 bda:	31 93       	st	Z+, r19
 bdc:	de f6       	brtc	.-74     	; 0xb94 <__ultoa_invert+0xe>
 bde:	cf 01       	movw	r24, r30
 be0:	08 95       	ret
 be2:	46 2f       	mov	r20, r22
 be4:	47 70       	andi	r20, 0x07	; 7
 be6:	40 5d       	subi	r20, 0xD0	; 208
 be8:	41 93       	st	Z+, r20
 bea:	b3 e0       	ldi	r27, 0x03	; 3
 bec:	0f d0       	rcall	.+30     	; 0xc0c <__ultoa_invert+0x86>
 bee:	c9 f7       	brne	.-14     	; 0xbe2 <__ultoa_invert+0x5c>
 bf0:	f6 cf       	rjmp	.-20     	; 0xbde <__ultoa_invert+0x58>
 bf2:	46 2f       	mov	r20, r22
 bf4:	4f 70       	andi	r20, 0x0F	; 15
 bf6:	40 5d       	subi	r20, 0xD0	; 208
 bf8:	4a 33       	cpi	r20, 0x3A	; 58
 bfa:	18 f0       	brcs	.+6      	; 0xc02 <__ultoa_invert+0x7c>
 bfc:	49 5d       	subi	r20, 0xD9	; 217
 bfe:	31 fd       	sbrc	r19, 1
 c00:	40 52       	subi	r20, 0x20	; 32
 c02:	41 93       	st	Z+, r20
 c04:	02 d0       	rcall	.+4      	; 0xc0a <__ultoa_invert+0x84>
 c06:	a9 f7       	brne	.-22     	; 0xbf2 <__ultoa_invert+0x6c>
 c08:	ea cf       	rjmp	.-44     	; 0xbde <__ultoa_invert+0x58>
 c0a:	b4 e0       	ldi	r27, 0x04	; 4
 c0c:	a6 95       	lsr	r26
 c0e:	97 95       	ror	r25
 c10:	87 95       	ror	r24
 c12:	77 95       	ror	r23
 c14:	67 95       	ror	r22
 c16:	ba 95       	dec	r27
 c18:	c9 f7       	brne	.-14     	; 0xc0c <__ultoa_invert+0x86>
 c1a:	00 97       	sbiw	r24, 0x00	; 0
 c1c:	61 05       	cpc	r22, r1
 c1e:	71 05       	cpc	r23, r1
 c20:	08 95       	ret
 c22:	9b 01       	movw	r18, r22
 c24:	ac 01       	movw	r20, r24
 c26:	0a 2e       	mov	r0, r26
 c28:	06 94       	lsr	r0
 c2a:	57 95       	ror	r21
 c2c:	47 95       	ror	r20
 c2e:	37 95       	ror	r19
 c30:	27 95       	ror	r18
 c32:	ba 95       	dec	r27
 c34:	c9 f7       	brne	.-14     	; 0xc28 <__ultoa_invert+0xa2>
 c36:	62 0f       	add	r22, r18
 c38:	73 1f       	adc	r23, r19
 c3a:	84 1f       	adc	r24, r20
 c3c:	95 1f       	adc	r25, r21
 c3e:	a0 1d       	adc	r26, r0
 c40:	08 95       	ret

00000c42 <__prologue_saves__>:
 c42:	2f 92       	push	r2
 c44:	3f 92       	push	r3
 c46:	4f 92       	push	r4
 c48:	5f 92       	push	r5
 c4a:	6f 92       	push	r6
 c4c:	7f 92       	push	r7
 c4e:	8f 92       	push	r8
 c50:	9f 92       	push	r9
 c52:	af 92       	push	r10
 c54:	bf 92       	push	r11
 c56:	cf 92       	push	r12
 c58:	df 92       	push	r13
 c5a:	ef 92       	push	r14
 c5c:	ff 92       	push	r15
 c5e:	0f 93       	push	r16
 c60:	1f 93       	push	r17
 c62:	cf 93       	push	r28
 c64:	df 93       	push	r29
 c66:	cd b7       	in	r28, 0x3d	; 61
 c68:	de b7       	in	r29, 0x3e	; 62
 c6a:	ca 1b       	sub	r28, r26
 c6c:	db 0b       	sbc	r29, r27
 c6e:	0f b6       	in	r0, 0x3f	; 63
 c70:	f8 94       	cli
 c72:	de bf       	out	0x3e, r29	; 62
 c74:	0f be       	out	0x3f, r0	; 63
 c76:	cd bf       	out	0x3d, r28	; 61
 c78:	09 94       	ijmp

00000c7a <__epilogue_restores__>:
 c7a:	2a 88       	ldd	r2, Y+18	; 0x12
 c7c:	39 88       	ldd	r3, Y+17	; 0x11
 c7e:	48 88       	ldd	r4, Y+16	; 0x10
 c80:	5f 84       	ldd	r5, Y+15	; 0x0f
 c82:	6e 84       	ldd	r6, Y+14	; 0x0e
 c84:	7d 84       	ldd	r7, Y+13	; 0x0d
 c86:	8c 84       	ldd	r8, Y+12	; 0x0c
 c88:	9b 84       	ldd	r9, Y+11	; 0x0b
 c8a:	aa 84       	ldd	r10, Y+10	; 0x0a
 c8c:	b9 84       	ldd	r11, Y+9	; 0x09
 c8e:	c8 84       	ldd	r12, Y+8	; 0x08
 c90:	df 80       	ldd	r13, Y+7	; 0x07
 c92:	ee 80       	ldd	r14, Y+6	; 0x06
 c94:	fd 80       	ldd	r15, Y+5	; 0x05
 c96:	0c 81       	ldd	r16, Y+4	; 0x04
 c98:	1b 81       	ldd	r17, Y+3	; 0x03
 c9a:	aa 81       	ldd	r26, Y+2	; 0x02
 c9c:	b9 81       	ldd	r27, Y+1	; 0x01
 c9e:	ce 0f       	add	r28, r30
 ca0:	d1 1d       	adc	r29, r1
 ca2:	0f b6       	in	r0, 0x3f	; 63
 ca4:	f8 94       	cli
 ca6:	de bf       	out	0x3e, r29	; 62
 ca8:	0f be       	out	0x3f, r0	; 63
 caa:	cd bf       	out	0x3d, r28	; 61
 cac:	ed 01       	movw	r28, r26
 cae:	08 95       	ret

00000cb0 <_exit>:
 cb0:	f8 94       	cli

00000cb2 <__stop_program>:
 cb2:	ff cf       	rjmp	.-2      	; 0xcb2 <__stop_program>
